:020000040800F2
:20000000000003202534000867240008692400086B2400086D2400086F2400080000000069
:2000200000000000000000000000000071240008732400080000000075240008792400083E
:20004000753400087534000875340008753400087534000875340008753400087534000818
:200060007534000875340008753400087534000875340008753400087534000875340008F8
:200080007534000875340008753400087534000875340008753400087534000875340008D8
:2000A00075340008753400087534000875340008753400081D29000875340008753400081B
:2000C000753400087534000875340008753400087534000875340008753400087534000898
:2000E0007534000875340008252900087534000875340008753400087534000875340008D3
:20010000000000007534000875340008753400087534000875340008753400087534000808
:20012000753400087534000875340008753400087534000800000000000000007534000899
:200140007534000875340008753400085D290008753400087534000875340008753400083A
:200160007534000875340008753400087534000875340008753400087534000800000000A8
:2001800075340008753400080348044B834202D0034B03B11847704768030020680300209E
:2001A000000000000548064B1B1AD90F01EBA301491002D0034B03B1184770476803002026
:2001C000680300200000000010B5064C237843B9FFF7DAFF044B13B10448AFF30080012372
:2001E000237010BD6803002000000000EC34000808B5054B1BB105490548AFF30080BDE8B1
:200200000840FFF7CFBF00BF000000006C030020EC340008384AD2F8003843F48033C2F874
:20022000003800230133344AD2F8002812F4003F03D14FF6FF729342F4D12F4BD3F80038D9
:2002400013F4003F05D12C4BD3F8003813F4003FF9D0294BD3F8402842F08052C3F840282B
:2002600026490A6842F440420A60D3F80828C3F80828D3F8082842F40042C3F80828D3F86C
:20028000082842F4A052C3F808281D4AC3F80428D3F8002842F08072C3F80028164BD3F8A7
:2002A000003813F0007FF9D0144A136843F480331360124B5B6813F4803FFAD00F4A136801
:2002C00043F4003313600D4B5B6813F4003FFAD0094BD3F8082822F00302C3F80828D3F8FA
:2002E000082842F00202C3F80828034BD3F8083813F0080FF9D07047003002400070004098
:200300000864400908B5FFF785FF08BD00B583B02B4AD2F8883043F47003C2F88830294ABE
:20032000D2F8003843F00103C2F80038254BD3F8003813F0020FF9D0224AD2F8083843F099
:200340008003C2F808380023019302E0019B01330193019B4F2BF9D91A4AD2F8083843F09A
:200360009003C2F808380023019302E0019B01330193019B4F2BF9D9124BD3F8082822F0A1
:200380000302C3F80828D3F8002822F0847222F48032C3F80028D3F8002822F48022C3F861
:2003A00000280022C3F80828D3F808180649C3F80418C3F80C28FFF7A5FF03B05DF804FB67
:2003C00000ED00E000300240103000240D4B1B680D4AA2FB03239B09013BB3F1807F0ED222
:2003E0004FF0E0225361094BF02183F82310002191610720106183F82310012070470020A4
:20040000704700BF00000020D34D621000ED00E0024A136801331360704700BF840300205C
:20042000014B1868704700BF84030020014B1860704700BF8403002038B50546FFF7F0FFD5
:200440000446FFF7EDFF001BA842FAD338BD830903F1804303F50E331A6800F01F0001217A
:2004600081400A431A607047830903F1804303F50E331A6800F01F00012181400A431A6086
:200480007047830903F1804303F50E331A6800F01F000121814022EA01021A607047000075
:2004A000044AD2F8083823F003030343C2F80838704700BF00300240024BD3F8080800F08B
:2004C0000C00704700300240044AD2F8C03823F001030343C2F8C038704700BF00300240E0
:2004E000044AD2F8C03823F002030343C2F8C038704700BF00300240830903F1804303F5B9
:200500000E331A6800F01F00012181400A431A607047000010B588B08446344C94E80F00D6
:200520000DF1200E0EE90F0002AB103494E8030083E803006B4683E803002D4BD3F8083809
:20054000C3F38103012B44D0022B44D1284AD2F8044804F03F04D2F80418C1F38811D2F823
:200560000438C3F3014301335B00D2F8042812F4800F2CD01F48B0FBF4F001FB00F0B0FBA2
:20058000F3F01B49D1F80838C3F3031320336B4413F8102C20FA02F2D1F80838C3F3822384
:2005A00020336B4413F8183C22FA03F4D1F80838C3F3423320336B4413F8203C22FA03F318
:2005C000BCF1030F09D8DFE80CF00B0A0D0F0A48D1E70848D5E70848D3E7002000E0104611
:2005E00008B010BD2046FBE71846F9E7043500080030024040787D010024F400830903F16F
:20060000804303F50E331B6800F01F00C34013F0010F01D0012070470020704710B51C28AD
:2006200013D81C2800F2B280DFE800F053B0B0B0B0B0B0B0B0B0B0B0B0B0B0B02FB0B0B0CE
:20064000B0B0B0B08BB09CB0AD00B0F5E85F67D043F21003984250D0B0F5E05F02D100206A
:2006600004461AE0002092E01120FFF7C7FF013418B94FF6FF739C42F6D11120FFF7BEFF71
:20068000002800F08480012081E000200446EFE741F60140FFF7B2FF013418B96FF0704345
:2006A0009C42F5D141F60140FFF7A8FF00286ED001206CE00120FFF7A1FF013410B9B4F550
:2006C000A06FF7D10120FFF799FF00285FD001205DE000200446F1E743F21100FFF78EFFD4
:2006E000013410B92A4B9C42F6D143F21100FFF785FF00284BD0012049E000200446F0E754
:2007000041F60150FFF77AFF013410B9204B9C42F6D141F60150FFF771FFC0B3012036E03C
:2007200000200446F1E71920FFF768FF013410B9174B9C42F7D11920FFF760FF38B3012041
:2007400025E000200446F2E71B20FFF757FF013410B90F4B9C42F7D11B20FFF74FFFB0B1EC
:20076000012014E000200446F2E71D20FFF746FF013410B9064B9C42F7D11D20FFF73EFF44
:2007800028B1012003E000200446F2E7002010BDFFFF0F00014BC3F8140C704700300140F0
:2007A000074BD3F8103C002B00DB7047044B054AC3F8042C02F18832C3F8042CF5E700BF57
:2007C0000030024023016745034AD2F8103C43F00043C2F8103C704700300240014BC3F8C8
:2007E0000C0C704700300240114BD3F80C3C13F4803F12D113F4807F11D113F0800F10D145
:2008000013F0400F0FD113F0100F0ED113F0020F01D1002070470620704701207047022011
:20082000704703207047042070470520704700BF0030024010B50446FFF7D6FF013C0128FF
:2008400001D1002CF8D104B110BD0720FCE7000038B505466FF03040FFF7ECFF00B138BDB7
:20086000154C164BC4F8243C45F00045C4F8205CD4F8103C23F0F803C4F8103CD4F8103CA2
:2008800043F00203C4F8103CD4F8103C43F48033C4F8103C6FF03040FFF7CCFFD4F8203C56
:2008A00023F00043C4F8203CD4F8103C23F00203C4F8103CD3E700BF00300240D6C7B8A9A9
:2008C00070B505460C466FF03040FFF7B3FF00B170BD0F4ED6F8103C23F44073C6F8103CB6
:2008E000D6F8103C43F40073C6F8103CD6F8103C43F00103C6F8103C2C606FF03040FFF77E
:2009000099FFD6F8103C23F00103C6F8103CDFE700300240F0B50568C6684FF0000C03E05E
:200920000CF1010C1FFA8CFCBCF10F0F18D84FF0010E0EFA0CFE1EEA030FF1D04FEA4C048D
:200940004FF0030E0EFA04FE25EA0E0501FA04F73D4326EA0E0E02FA04F444EA0E06DFE77D
:200960000560C660F0BD10B5012906D0416821EA030141608468002105E041681943416089
:20098000F8E7013189B20F2913D84FF0010C0CFA01FC1CEA030FF4D04FEA410C4FF0030EE7
:2009A0000EFA0CFE24EA0E0402FA0CFC4CEA0404E7E7846010BD8162704730B5046A456AA8
:2009C000002301E001339BB2072B13D84FF0010C0CFA03FC1CEA020FF4D04FEA830E4FF040
:2009E0000F0C0CFA0EFC24EA0C0401FA0EFE4EEA0404E7E7082301E001339BB20F2B15D8E5
:200A00004FF0010C0CFA03FC1CEA020FF4D0A3F1080C4FEA8C0C4FF00F0E0EFA0CFE25EAB4
:200A20000E0501FA0CFC4CEA0505E5E70462456230BD000030B42C4B1D682C4C2C401C605A
:200A40001C6804431C60B1F5402F37D028490B6943F004030B614FF0E0231869254908600F
:200A6000D3F800014860D3F804018860D3F80801C86018692049014019612049C3F88011F4
:200A80001F49C3F884116FF48051C3F8881132BB30BF184A11684FF0E02319615168C3F82F
:200AA00000119168C3F80411D268C3F80821104A136923F00403136130BC704738B91946E7
:200AC0001B6843F4402343F400630B60BEE706490B6843F4402343F480630B60B6E740BFD2
:200AE00020BF20BFD5E700BF00700040FCF3F3FF00ED00E0880300200400010031F87FFF08
:200B0000FFF8FFBF0B888362204B984212D0B0F1804F0FD0A3F57C4398420BD003F580634B
:200B2000984207D003F58063984203D003F5784398420BD1036823F07003036003684A8882
:200B40001343036003688A88134303608B68C3620F4B98420ED003F5806398420AD0036882
:200B600023F4407303600368CA8813430360074B984207D0074B984204D0436943F00103EC
:200B8000436170470B7B0363F7E700BF000001400010004000040140036843F00103036096
:200BA0007047036823F0010303607047036843F0800303607047C3680B43C3607047C36829
:200BC00023EA0103C3607047C3680B4002690A4202D01BB9002070470020704701207047D1
:200BE000C94301617047000040F0BF6040F40030014BD860704700BF00ED00E070B50546E6
:200C00000E461446274BDB6803F4E063B3F5E06F25D0244BDB6803F4E063B3F5C06F38D080
:200C2000204BDB6803F4E063B3F5A06F34D01D4BDB6803F4E063B3F5806F30D0194BDB68EE
:200C400003F4E063B3F5407F02D10023042208E04FF4A060FFF7C8FF02231A4601E0042362
:200C60000022C2F104029640C3F104030F2222FA03F31C4034432401E4B20B4A531983F8FB
:200C8000004305F01F016D0901238B4042F8253070BD03230122E4E702231A46E1E7012356
:200CA0000322DEE700ED00E000E100E0D0F830344A78202A23D0212A1FD11A6D83F84020F4
:200CC000C2F3072183F84110C2F3074183F84210120E83F8432093F8542083F8442093F83A
:200CE000552083F8452093F8562083F846204033C0F8D8300723C0F8E4300020704710B4F9
:200D0000D0F82C446270CA88C0F888224033C0F87C3200205DF8044B7047D0F83034D0F8CD
:200D20002C245278FF2A1ED093F8402093F8411042EA012293F8421042EA014293F8431042
:200D400042EA01621A6593F8442083F8542093F8452083F8552093F8462083F85620D0F81D
:200D60002C34FF225A7000207047D0F83034012283F84920C1EBC10100EB8100D0F88422D6
:200D8000DA640020704710B501F07F03D0F83044C3EBC30200EB8202D2F8DC20C3EBC303AE
:200DA00000EB8303B3F8D4C0B2FBFCF30CFB132303B922B9012384F84830002010BD1A46AE
:200DC00000F0DFF8F9E710B50446812100F0A2F80321204600F09EF88221204600F09AF896
:200DE000002010BD38B50446104D294600F050F8E91F204600F04CF8A5F11701204600F025
:200E000047F80B4B012283F8492083F848200022DA64084903C91865A3F85410090C83F8CA
:200E20005610C4F83034104638BD00BF7C370008980300201C350008D0F830343BB1B3F890
:200E4000482040F201139A4203D001207047012070470020704738B5D0F83044E36C03B97A
:200E600038BD002584F848502246812100F089F8E564F5E708B5D0F83024002382F84930B5
:200E800082F848304023032100F05CF808BD000010B58C4691F802E08C8891F90230002BD3
:200EA00021DBCEEBCE039B0003F51C730344191DCEEBCE0300EB830393F8742222F080025D
:200EC00083F874220B786EF303030B708C809CF8033003F003030E4A12F823304B7000F070
:200EE00095FE002010BD0EF07F03C3EBC3029200C832024402F10801C3EBC30300EB8303CC
:200F000093F8D02042F0800283F8D020DAE700BF9837000808B511F0800F0AD1C1EBC1014A
:200F2000890001F51C710144043100F0B9FE002008BD01F07F01C1EBC1018900C8310144F9
:200F40000831F2E708B501F07F0CCCEBCC01890001F51C7101440431CCEBCC0E00EB8E0E24
:200F6000CEF87C22CEF880320023CEF884320379012B03D000F031FF002008BDCEF88C2202
:200F8000F8E708B501F07F0CCCEBCC018900C83101440831CCEBCC0E00EB8E0ECEF8D820DF
:200FA000CEF8DC300023CEF8E0300379012B03D000F09AFE002008BDCEF8E820F8E708B514
:200FC00011F0800F0CD1C1EBC101890001F51C710144043101238B7000F041FF002008BD7C
:200FE00001F07F01C1EBC1018900C83101440831F0E710B511F0800F0CD1C1EBC101890012
:2010000001F51C710144043100248C7000F044FF204610BD01F07F01C1EBC1018900C831EC
:2010200001440831F0E708B54269536823F002035360032001F055FB08BD08B54269536821
:2010400043F002035360032001F04BFB08BD70B582B004460E46C0F82824C0F82C34D3683A
:20106000D86800F0A7FA04F1100532462946204600F0EAFB2269936823F00103936000954E
:2010800094E80F0000F054FC2046FFF7D6FF0021284600F003FD204600F034FD22699368C8
:2010A00043F0010393602046FFF7BDFF012384F8CE3002B070BD01207047D0F828341B68F2
:2010C0001B781380D0F8283418687047D0F8283459688B78C97843EA01231380D0F828345E
:2010E00058687047D0F828349B689B781380D0F8283498687047D0F82834DB6853F82100FE
:20110000037813807047000000B50246B1F804C05FFA8CFE0B7803F0030001282ED00228F3
:2011200035D0002851D192F8CE30DBB2022B06D092F8CE30DBB2032B01D0012014E092F895
:2011400018349BB1224B0121197092F81A348BB11F490B7843F002030B701D4BC2F8D83003
:201160000223C2F8E43000205DF804FB184B00211970EAE7164B00211970EEE792F8CE30C2
:20118000DBB2032BF0D1BEF1010FEDD8E5E792F8CE30DBB2032B01D00120E5E71CF0800FE7
:2011A00008D1CEEBCE0E02EB8E0E9EF87612084B1970D2E70EF07F0ECEEBCE0E02EB8E0EDC
:2011C0009EF8D210024B1970C7E70120CCE700BFF00300208B880BBBCB880BBB4B8803F0B5
:2011E0007F0380F8CD3090F8CE20D2B2032A19D041690A6822F4FE620A6041690A6842EAA4
:2012000003130B6090F8CD3023B1022380F8CE3000207047012380F8CE30F9E70120704730
:20122000012070470120704770B504460D460B7813F0030303D0012B41D0012644E0498884
:201240000E0AC9B2731E0E2B53D8DFE803F008182352525252525252525252523000731EC2
:201260002A4A52F8233000F1E4029847C4F8D800EB88402B28D10823C4F8E43024E0013EFE
:20128000224B53F8263000F1E4029847C4F8D800012619E009292ED8013E1C4B53F8263057
:2012A00000F1E4029847C4F8D80001260CE000F1E402FFF717FFC4F8D800012604E0D0F887
:2012C0002C34DB6898470646D4F8E430C3B1EA88B2B1934211D2B4F8D420934212D3B3FB57
:2012E000F2F102FB11337BB9012384F82534002606E00126E8E70126E6E7C4F8E4200026C1
:20130000304670BD0026FBE70026F9E7A83700080020704790F8CE30DBB2022B03D0032B1D
:2013200006D00120704790F8CC3023B10120704790F8CC3043B100F1CC03C0F8D8300123B3
:20134000C0F8E430002070470120704738B54C88E4B2224B1C70012C02D90124204638BD3A
:20136000054690F8CE30DBB2022B03D0032B11D00124F3E7002CF1D0D0F82C345B682146C2
:201380009847164B1B7885F8CC30032385F8CE300024E3E764B9D0F82C349B6821469847E4
:2013A0000E4B1B7885F8CC30022385F8CE30D5E790F8CC309C420FD0D0F82C349B68214699
:2013C0009847064B197885F8CC10D5F82C345B68284698470024C1E70024BFE7F20300200B
:2013E00090F8CE30DBB2032B01D0012070478B88DBB2012B01D901207047D0F82C34013329
:20140000C0F8D8300123C0F8E4300020704708B590F8CE30DBB2032B01D0012008BD8B887D
:20142000DBB2012B01D90120F8E7D0F82C341B6903B198470020F1E70020704708B5024606
:201440000B7813F0030003D0022813D0012008BD92F8CE30DBB2022B06D092F8CE30DBB210
:20146000032B01D00120F2E74B88012BEFD182F81A34ECE78B88D8B292F8CE30DBB2032B39
:2014800001D00120E3E74B8813B908B1802801D10020DCE701461046FFF791FDF8E738B5EE
:2014A00005460C460B7813F0030003D0022816D0012038BD95F8CE30DBB2022B06D095F865
:2014C000CE30DBB2032B01D00120F2E76388012B01D00120EDE7002385F81A34E9E78988DC
:2014E000C9B295F8CE30DBB2032B01D00120E0E7638813B909B1802901D10020D9E7284638
:20150000FFF777FDD5F82C34DB68214628469847F3E7000008B54A78024B53F8223098471B
:2015200008BD00BFB437000808B590F8CE30DBB2032B01D0012008BD8B88DBB2012B01D9D9
:201540000120F8E7D0F82C34DB689847F3E70020704710B504468021FFF731FD0021204635
:20156000FFF72DFD204600F0C5FC10BD002393421ED200B510E00CF1370C01F813C00001CD
:201580004FEA430C0CF1010C4FF0000E01F80CE00133DBB2934209D24FEA107CB0F1204F41
:2015A000E9D20CF1300C01F813C0E8E75DF804FB7047000038B504460378062B14D00F4B70
:2015C000D3F8100AD3F8145AD3F8183AC01800D138BD0822A11CFFF7C9FF042204F112015F
:2015E0002846FFF7C3FFF3E7054BD3F8003D002BEED043801B0C8380EAE700BF0070FF1F9F
:201600000030024010B50446D0F8E430D0F8D8200021FFF7B6FCD4F8E420B4F8D4309A4288
:2016200004D9012384F82434002010BD022384F82434F9E710B50446D0F88832D0F87C2218
:201640000021FFF77FFCD4F88822B4F878329A4204D9032384F82434002010BD042384F8E9
:201660002434F9E710B50446052380F8243400231A461946FFF785FC204600F03BFC002025
:2016800010BD10B50446062380F8243400231A461946FFF757FC204600F02CFC002010BDDF
:2016A00010B582B0044600F21C4393E8030002AB03E903009DF8003003F06003202B12D036
:2016C000402B15D00BBB69462046FFF723FFE0B9BDF806308BB19DF90030002B11DB2046C4
:2016E000FFF7A8FF15E069462046FFF71DFFEEE769462046FFF72BFFE9E72046FFF7B2FF4A
:2017000007E02046FFF77EFF03E069462046FFF720FF002002B010BD10B5044661BB90F8AA
:201720002434032B0DD0042B2FD190F8CE30DBB2032B1AD00023C4F888322046FFF792FF66
:2017400023E0D0F88832B0F878229B1AC0F888320379012B03D02046FFF76CFF15E0D0F89C
:201760007C321344C0F87C32F5E7D0F82C349B69002BDFD09847DDE7D4F82C341A6A22B1F6
:2017800094F8CE30DBB2032B01D0002010BD20469047FAE710B50446C1BB90F82434012B91
:2017A00010D0022B37D190F82534FBB990F8CE30DBB2032B23D00023C4F8E4302046FFF7FC
:2017C00060FF28E0D0F8E430B0F8D4209B1AC0F8E4300379012B03D02046FFF713FF1AE0C6
:2017E000D0F8D8301344C0F8D830F5E700231A461946FFF7C6FB002384F825340BE0D0F8E2
:201800002C345B69002BD6D09847D4E790F8CE30DBB2032B01D0002010BDD0F82C34DB69CE
:20182000002BF8D09847F6E708B50268136943F00103136103681B6913F0010FFAD10320BB
:2018400000F04AFF08BD00002DE9F04704460D46002303710223437002701AB1012A22D0D7
:20186000012061E0314BC3600C2383700623C37002234371E66806F5006A06F5806906F57E
:20188000886806F56067BC220021284601F018FE2E60C5F804A0C5F80890C5F87880C5F86C
:2018A000B870002321E04FF0A043C360082383700423C3700223437100238371C371D9E73B
:2018C000E26802EB431202F51062991C05EB81014A60E26802EB431202F5306203F1080130
:2018E00005EB81014A600133DBB2E2789A42E7D8002315E0E26802EB431202F5A06203F185
:201900000E0105EB81014A60E26802EB033202F5805203F11E0105EB81014A600133DBB277
:20192000A2789A42E6D80020BDE8F0870000044010B584B004AC04E90F00069C9DF8053062
:20194000012B22D12268936B23F4803393639DF8063023B12268936B43F4801393632268AF
:20196000D36823F4001323F04003D3602268D36823F48013D3602046FFF756FF9DF804305D
:20198000012B20D0002004B010BD2268D36843F04003D3602046FFF747FF2268936B43F4BB
:2019A000502393632268936B43F4001393639DF8063023B12268936B43F4801393631420DB
:2019C00000F08FFEDAE72268936823F01E0393602268936843F02A039360D3E703339B08B2
:2019E0001E3200EB8200406803E051F8043B036013465A1E002BF8D1002070470332920849
:201A0000C06F03E0026841F8042B1A46531E002AF8D10846704708B58901036841F0200115
:201A2000196103681B6913F0200FFAD1032000F053FE002008BD08B5036810221A610368B7
:201A40001B6913F0100FFAD1032000F045FE002008BD10B40468606A29B940EA0240A06290
:201A60005DF8044B70478C46A36A00EB1340002308E003F1400104EB8101496800EB114050
:201A80000133DBB20CF1FF318B42F2D340EA02400CF13F0104EB81046060E1E70268D3687C
:201AA00023F0C043D36029B90268D36843F08043D3607047012900D070470268D36843F0ED
:201AC0000053D360F8E7000003694FF0FF325A6003696FF080425A610369084A9A6103798E
:201AE00023B90269936943F01003936102699169034B0B4393610020704700BF0008008056
:201B000008303C0038B50446D0F8C83000221A604269136823F4C053136043691A681A6053
:201B20004269136823F0030313600378012B14D004F1100510212846FFF76DFF2846FFF7F9
:201B40007AFF636900221A6163695A6163694FF0FF3199616369DA6128E04269136843F07F
:201B600003031360036980225A62002509E0264B33F81520294604F11000FFF76AFF01353A
:201B8000EDB2032DF3D9D3E7086840F09040086019E0002008600C3304EB83035968002002
:201BA00008615B68FF2199600132D2B2E37893421FD91346911D04EB810149680868002840
:201BC000E2DB00200860991D04EB81014868002505614968FF20886003F10C0104EB810134
:201BE00049680868A842D4DA086840F090400860D1E76269136943F0100313612046FFF73F
:201C000063FF002038BD00BFE837000830B543699B6803F0060E0A7802F00F0312F0800FB5
:201C20002BD103F10C0200EB8202526803F110044FF0010C0CFA04FC146814F4004F15D16A
:201C40001568154C2C40146003BB1468134D15F80E502C431460146849789B0543EA814310
:201C6000234343F0805343F4004313604269D36943EA0C03D361002030BD9A1D00EB820281
:201C800052684FF0010C0CFA03FCD5E714688D882C431460DFE700BF00F833FCF03700082E
:201CA0000A7802F00F0312F0800F12D103F1100101228A400C3300EB830359680B6823F43D
:201CC00000430B604169CB6923EA0203CB610020704701229A40063300EB830359680B6888
:201CE00023F400430B60EDE710B582B00A7802F00F02931D00EB83035B681C6801941B694E
:201D00000093009B03F060430093CB684BBB009B43F400230093931D00EB83035B68009C2B
:201D20001C614B78012B3CD00379012B48D0019B43F004430193931D00EB83035B68019C40
:201D40001C60037953B94B78012B40D0CB682BB14069436B012191400B434363002002B061
:201D600010BDA2B98C889C4228BF1C46CC60009B43F400230093CB68009C234300934B78C1
:201D8000012BC8D1009B43F000530093C3E78C882344013BB3FBF4F3009C44EAC343009371
:201DA000E9E743699B6813F4807F04D0019B43F080530193B8E7019B43F000530193B3E7A5
:201DC000931D00EB83035B688C695C61AFE78B8989681030FFF702FEC0E770B40B7803F05B
:201DE0000F0303F10C0200EB820255682C682A6902F0604CCE6806B1ABB98A8842EA0C0241
:201E000042F400222A610279012A18D04A78012A1DD044F004440C3300EB830043681C6027
:201E2000002070BC70478A881644013EB6FBF2F64CEAC64C06FB02F242EA0C02E2E703F127
:201E40000C0200EB820252688D695561DEE7CA7812B144F00054DCE744F08054D9E70A7840
:201E600002F00F0312F0800F09D10C3300EB83004268136843F40013136000207047063354
:201E800000EB830043681A4619680029F1DA196841F080411960ECE70A7802F00F0312F00D
:201EA000800F0ED10C3300EB83004268136823F4001313604B78023BDBB2012B06D900208D
:201EC0007047063300EB83004268EFE7136843F080531360F3E743691A695B6BCB40DB017A
:201EE000DBB21343063100EB810042689068184070470000436B084A1A610379012B00D0B8
:201F0000704700F21C42436B5A61426B136843F080231360F4E700BF18000860C37953B186
:201F200043699B6813F0010F05D0D0F8C820136823F003031360704742699368C3F34103FC
:201F4000516821F48071516041694A6842F480724A600169CA6822F47052CA600B4AD35CC1
:201F6000032B0CD0022343700269D36843F4A053D36003694FF400525A6101207047437035
:201F80000269D36843F41053D360F2E7F4370008F0B583B0064643699D69DB691D40C5F393
:201FA0000545002422E004F10C0306EB83035B681B690193C4EBC40106EB8101D1F8802209
:201FC000B1F878321A44013AB2FBF3F202FB03F3019AC2F312029B1AC1F884321EE0009B6F
:201FE00013F0080F2BD16D080134E4B28DB315F0010FF8D0274604F10C0306EB83035A68C4
:020000040800F2
:202000009368716949690B400093009B13F0010FE5D0012393603379012BC4D02146304698
:20202000FFF77AFB3379012BD9D1002CD7D196F82434062BD3D13046FFF75CFFCFE7304631
:20204000FFF72EFB0C3706EB87077B6808229A60C9E7012003B0F0BD2DE9F04107460C4681
:20206000C1EBC10300EB8303D3F8DC20D3F8E010521AB3F8D480904500D3904608F1030810
:202080004FEA98081DE006F103084FEA9808C4EBC40507EB8505B3B2E2B2D5F8D81007F1F5
:2020A0001000FFF79BFCD5F8D8303344C5F8D830D5F8E0303344C5F8E030D5F8DC209342B3
:2020C0001CD0A31D07EB83035B689B699BB243451CD3C4EBC40307EB8303D3F8E020D3F8CD
:2020E000DC309A4212D29B1AC4EBC40207EB8202B2F8D4609E42C6D31E46C4E779694B6B76
:202100000122A24023EA02034B63DAE70120BDE8F08170B582B0064643699C69DB691C400E
:2021200004F03F04002518E0AB1D06EB83035B6801229A6029463046FFF72CFB3379012B52
:2021400018D1BDB996F82434052B13D13046FFF7D1FE0FE064080135EDB2D4B114F0010F22
:20216000F8D029463046FFF7B6FE0190019B13F0010FD9D1019B13F0800FEBD02946304650
:20218000FFF76AFFAB1D06EB83035B6880229A60E0E7012002B070BD10B582B00446C379FE
:2021A0008DF8073043699B6803F001038DF8063090F8CE30DBB2032B1AD000238DF80530FA
:2021C00094F8CE30DBB284F8CF30042384F8CE309DF807302BB19DF8063013B19DF80530CB
:2021E00043B923694FF400625A61012002B010BD0123E3E7D4F8C820136843F0030313608E
:20220000002211460120FEF715FCEAE72DE9F04182B00446002301930269936923F0100346
:20222000936103691B6A0193019D05F00F05019EC6F30A160199C1F3C131019BC3F34343EE
:20224000022B0AD0062B1FD02269936943F010039361012002B0BDE8F081002EF4D0C5EB0B
:20226000C50700EB87073246D7F87C121030FFF7C5FBD7F87C323344C7F87C32D7F8843268
:202280003344C7F88432DFE7C5EBC50300EB830393F8743213F00F0FD6D1082ED4D10029A6
:2022A000D2D1324600F21C411030FFF7A7FBC5EBC50304EB8303D3F88432C5EBC50504EB05
:2022C00085053344C5F88432BEE7F8B504464269536823F00103536000211030FFF79BFBD1
:2022E00000230CE09A1D04EB82025268FF21916003F10C0204EB8202526891600133E2782C
:202300009A42EFD863694FF0FF329A6163694FF00112DA61636909225A61636901261E6166
:202320006269136823F4FE6313602046FFF7E2FD23694FF480525A6104F51D710025C4F86D
:2023400074524D608D60CD600D614D618D614027A4F878722046FFF759FC04F1D001C4F8C6
:20236000D0504D608D60CD600D614D618D6194F8D03043F0800384F8D030A4F8D470204668
:20238000FFF744FC84F8CE603046F8BD38B503695A6912F0010F3ED104465D699B691D4084
:2023A00039D015F4002F37D115F4802F37D115F4006F38D1002D3ADB15F0080F08D0D4F891
:2023C0002C345B6A0BB120469847236908225A6115F0100F3BD115F4805F3CD115F4005FD9
:2023E0003DD115F4801F09D0D4F82C349B6A0BB12046984723694FF480125A6115F4001FD8
:2024000009D0D4F82C34DB6A0BB12046984723694FF400125A6138BDFFF7BAFDC4E7204622
:20242000FFF777FEC3E72046FFF7B6FEC2E794F8CE30DBB2042B04D023694FF000425A61EC
:20244000BAE794F8CF30DBB284F8CE30F4E72046FFF7DCFEBFE72046FFF737FFBEE72046F5
:20246000FFF76AFDBDE7FEE7FEE7FEE7FEE7FEE7704770477047000008B5FDF7C9FF074AF3
:202480001368013B1360064B1B7813B9054B1B781BB1054A1368013B136008BD3C08002011
:2024A0004E0800204D0800206403002021F0604121F07F010143014B9960704700ED00E05A
:2024C00030B585B004460220FEF724F8204BA3FB00239B0C5B001F4AA2FB0323DB08013BEC
:2024E0009BB21D4A13801D4D2846FEF75AFB01212846FEF764FB022C23D0012C24D0164BEC
:202500001B88ADF800300023ADF80230ADF80430ADF806308DF80C30104C69462046FEF76E
:20252000F1FA01212046FEF75BFB2046FEF73EFB01212046FEF73FFB2046FEF72DFB05B05A
:2025400030BD0B230293DAE742F6DF630293D6E783DE1B43ABAAAAAA5E0300200004004011
:2025600008B5064A10600846FFF7AAFF034B1B68002BFBD10248FEF714FB08BDF4030020FF
:202580000004004008B51C4BD3F83004C36C3BB3002380F8483009E01849D1F800281A440B
:2025A00010F803C001F802C001339BB2C26C9342F2D3124BD3F800180A44C3F800280122B8
:2025C00083F80A2800230E4A13600E4A1370C3640948FEF74FFC0848FEF72EFC40B108BDA8
:2025E000074A136801331360064B01221A70F2E70148FEF73FFCF2E7F8030020680C002090
:20260000480800204C08002008B51020FDF774FF1120FDF7F3FF0028FAD01820FDF76CFFE2
:202620001920FDF7EBFF0028FAD00220FDF738FFFDF742FF0828FBD108BD08B543F210004C
:20264000FDF75AFF43F21000FDF7E8FF0128F9D1FDF73AFF40F60750FDF7F9FE08BD0000B0
:2026600010B541F20E10FDF7F2FE4FF44060FDF7EEFE0B4C4FF4C053002202212046FEF750
:2026800049F94FF4C053032200212046FEF76BF94FF4C0520A212046FEF78FF910BD00BFAE
:2026A0000000024008B54FF4A060FEF79DFA002202214320FEF7A2FA08BD08B54FF4A0604E
:2026C000FEF792FA002201211D20FEF797FA41F20100FDF7BCFE08BD08B50221FFF740FFB6
:2026E00008BD08B50121FFF73BFF08BD08B501210A48FEF769FA00B908BD01210748FEF7D4
:202700006FFA074B1B6823B1054A1368013B1360F2E70248FEF745FAEEE700BF00040040FF
:20272000F403002010B5FFF79BFF064C4FF400612046FEF740F94FF480512046FEF73BF900
:2027400010BD00BF000002400246002004E05F230B8001320231013013781BB1202BF6D053
:202760000B80F6E70B8070472DE9F041ADF5007D4FF48076324600210DEB060000F0A0FEEB
:202780001E4F32460021384600F09AFE0DEB06011B48FFF7D9FF0446BD1E32460DEB060161
:2027A000384600F095FE6400E4B2023407F8024C32460021684600F083FE124F32460021E9
:2027C000384600F07DFE69460F48FFF7BDFF0446A7F1020832466946384600F079FE6400FC
:2027E000E4B2023407F8024C084B5D60C3F80880074AD3600DF5007DBDE8F0815E020020D4
:20280000F83700085A010020FC370008440000203400002008B502460B4681210148FEF7DD
:20282000B0FB08BDF803002010B510E01748FEF712FBFDF7F5FD83B2A4B21B1B9BB2B3F55B
:20284000FA6F22D3124800F0C2FD01281AD00020FDF7ECFDFDF7E4FD0446FDF7E1FD001BF5
:20286000B0F5FA6FE5D2094B93F8CE30DBB2032BF3D10648FEF7E0FA0028D7D10348FEF70A
:20288000F9FAEAE700F092F8E1E710BDF80300200080000808B5FFF7D0FEFFF7E1FEFFF776
:2028A0000CFFFFF761FF064B064A01210648FEF7CEFBFFF7F7FEBFF34F8FFFF7B5FF08BDFE
:2028C0000400002034000020F803002008B5FFF759FE08BD08B540F20750FDF7C5FD40F268
:2028E0000750FDF7CEFD4FF48060FDF7BDFD4FF48060FDF7C6FD40F60100FDF7B5FD40F604
:202900000100FDF7BEFD08BD08B50348FEF795FBFFF7E0FF08BD00BFF803002008B5FFF78E
:20292000E5FE08BD08B50C4BDB7923B94FF48020FDF730FF08BDFFF767FE0020FDF7D0FDA4
:202940000020FDF7C1FD40F60750FDF780FD0248FFF7E4FAEAE700BFF803002008B50248D7
:20296000FFF714FD08BD00BFF803002030B583B00D4614464FF0E022136923F001031361A4
:20298000B0F1006F0ED94FF000630193019BC01A009001980099FFF789FD85F30888A04767
:2029A00003B030BD4FF00053EFE7000008B5FFF7ABFF06480368064A13604168054B1960C4
:2029C00011681A68FFF7D2FF08BD00BF008000083808002034080020BFF34F8F0449CA685E
:2029E00002F4E062034B1343CB60BFF34F8FFEE700ED00E00400FA0591421BD338B50D468A
:202A0000144601D0002309E00A46002100F058FD00200EE0E218825CC2540133A5EB040CF9
:202A20009C45F7DC22460021604400F049FD281B80B238BD0020704710B5914214D30DD0E2
:202A4000431813F802CC13F8014C44EA0C248B1A0021184400F034FD204610BD0A460021A5
:202A600000F02EFD0024F7E70024F5E71A4B197883F80C18587883F80D0893F802C0DA78A5
:202A800042EA0C22A3F80E280632A3F80828A52901D001207047022819D00DD890B101282F
:202AA00013D10E4B1B68022B02D90C4B01221A600B4B01221A7008E0FE2806D1084B0322FA
:202AC0001A7002E0064B00221A7000207047044B02221A70F9E700BF680C0020440800201A
:202AE0007C18002070B506461D46FFF785FF04462A4601463046FFF79FFF034BA3F8100CC4
:202B0000601B80B270BD00BF680C002010B586B00023019302930393049305938DF80400F3
:202B200002238DF806308DF807108DF80820052101A800F0CBFBC0F30724C0B204230AE086
:202B400003F11801694411F8141C03F119026A4402F8141C013B002BF2DAA5238DF80430E7
:202B60008DF80A408DF80B00084C64220021204600F0A6FC01AB93E8030084E80300082141
:202B80002046FFF747FE06B010BD00BF8018002038B5114C002584F80A58C4F80458C4F879
:202BA0000058A4F80858A4F8105CA4F80E5884F80C5884F80D5884F80B584FF40062294603
:202BC000204600F07DFC4FF48062294604F5016000F076FC38BD00BF680C002070B58AB02F
:202BE0009E4B1B78012B50D0022B00F0B980002B4FD19B4B1B68002B4BD10133984A136033
:202C0000984AB2F80838991E525C012A03D1013B944AD35C7BB1944B02930023039304934B
:202C200005930693052102A800F050FBC0F30724C0B2042310E0122201210020FFF766FF20
:202C400027E003F12801694411F8201C03F129026A4402F8201C013B002BF2DAA5238DF8DB
:202C600008308DF80E408DF80F00804C64220021204600F025FC02AB93E8030084E8030031
:202C800008212046FFF7C6FD03E0754B1B68012B03D0FFF77DFF0AB070BD0133704A13600D
:202CA000704C0322B4F808182046FFF7A5FEA4F808082388012B16D0B3F5817F34D040F221
:202CC00002229342E5D16A4800F052FB022211460120FFF71BFF674B4FF47A721A60664B9E
:202CE00001221A70D5E7022201462046FFF784FEA4F8080800230DE0604C2268411EC91AEE
:202D0000584D695C4FEAC30C01FA0CF10A4322600133DBB29842EFD800F00AFB01221146A9
:202D20001046FFF7F3FEB4E7544B5A681B68B2EB932F0FD24E4800F01BFB0222114601205F
:202D4000FFF7E4FE4B4B4FF47A721A604A4B01221A709EE7012202211046FFF7D7FEF1E756
:202D60003F4B1B68012B94D901333D4A13603D4C0322B4F808182046FFF73EFE0146A4F88A
:202D80000808227863781B0443EA0263A27843EA0223E27813433948436094F804C0627992
:202DA00042EA0C2214B2828113B18068834204D032480068B3EB902F0ED91BB12F49896850
:202DC0008B4205D12D490968B3EB912F40F2A280234B01221A605CE7284D2A6901322A61A3
:202DE000AB60204E06223046FFF706FE0446A6F80808AB8998427FF44CAF18354FF48062DC
:202E00000021284600F05CFB22463146284600F05FFB22460021304600F052FB45F8045C6C
:202E2000174C20684FF40072294600F0B0FA236803F5806323600023124A1360ADF8043035
:202E40000323002B20DB0D4A5268D900CA40C3F103010C484254013BF3E700BF7C18002007
:202E600044080020680C0020FE0001038018002000800008640300204E080020500800209B
:202E800060030020400800204D4B9C89260A8DF80460E4B28DF8054002AD1E220021284693
:202EA00000F00EFBA5238DF8083002238DF8093007238DF80B30434B1A788DF80C205A7824
:202EC0008DF80D209A788DF80E20DB788DF80F308DF810608DF8114001238DF812300A2183
:202EE0000DF1090000F0F2F9C0F307238DF813308DF81400344E64220021304600F0E0FA49
:202F0000344695E80F0007C423700D213046FFF781FCBEE600212B480160ADF804100321C0
:202F200007E0C80023FA00F0C1F10305254E705501390029F5DA160A8DF80460E4B28DF88D
:202F4000054002AD1E220021284600F0B9FAA5238DF8083002238DF8093007238DF80B30B9
:202F6000184B1A788DF80C205A788DF80D209A788DF80E20DB788DF80F308DF810608DF8D1
:202F8000114001238DF812300A210DF1090000F09DF9C0F307238DF813308DF814000A4EA7
:202FA00064220021304600F08BFA344695E80F0007C423700D213046FFF72CFC69E600BF4B
:202FC00050080020400800208018002030B587B0644C02230122B4F808182046FFF782FD9E
:202FE0000146A4F80808204600F070F9B4F8103C834200F0B4805C4B1B78022B03D05B4B5E
:203000001B68012B74D900230093594B1B698BB1574B586801305860032309E0D90020FA4D
:2030200001F1C3F1030218326A4402F8181C013B002BF3DA4B4C0322B4F808182046FFF7A7
:20304000DBFCA4F8080800230193029303930493059302238DF8043007228DF806209DF895
:2030600000208DF807209DF801208DF808209DF802208DF809209DF803208DF80A202279BA
:203080008DF80B2062798DF80C208DF80D300A2101A800F01BF9C0F30724C0B209230AE0F4
:2030A00003F11801694411F8141C03F119026A4402F8141C013B002BF2DAA5238DF8043082
:2030C0008DF80F408DF810002A4D64220021284600F0F6F901AB2C460FCB07C423700D2198
:2030E0002846FFF797FBFFF753FD002007B030BD214B01930023029303930493059304212E
:203100000DEB010000F0E2F8C0F30724C0B203230AE003F11801694411F8141C03F119028A
:203120006A4402F8141C013B002BF2DAA5238DF804308DF809408DF80A000E4C64220021A5
:20314000204600F0BDF901AB93E803002060A180090CA17107212046FFF75CFBC3E70120CB
:20316000C4E700BF680C00207C180020440800205008002080180020FE00010108B500F054
:20318000CFF808BD08B5FFF7A1FB474B1B68012B17D9464B1B68002B4FD0454B93F80A3868
:2031A000012B5ED0434B1B781BB1434B1B68002B73D0424B1B781BB13F4B1B68002B6FD0E6
:2031C00008BD3A4B1B68C3B1394B93F80A38012BE8D13B4B1B78002BE4D03A4B1B680A2B43
:2031E000E0D10A213248FFF741FCFFF7EFFEF0B92E4B42F210721A60D4E7334800F0E7F80C
:20320000012804D0294B42F210721A60DCE702221146FFF77BFC284B4FF47A721A60254BD6
:2032200001221A70214B42F210721A60CCE72048B0F80818FFF7D2FCDAE7234800F098F8F2
:20324000022211460120FFF761FC1B4B4FF47A721A601A4B01221A70144B42F210721A60CF
:203260009BE7174B1B78002B9CD0164B1A6840F6C4139A4296D10A210D48FFF7F7FBFFF7AF
:20328000A5FE20B9094B42F210721A608AE70848B0F80818FFF7A2FCF4E7FFF787FBFEE7D9
:2032A000FFF76CFFFFF798FB440800203C080020680C00204E080020640300204D0800204E
:2032C0004C08002048080020008000084FF0000C4FF6FF728C4512D210B4D3B210F8014B2F
:2032E0006340084C34F8133083EA12220CF1010C8C45F2D3D04380B25DF8044B7047D04374
:2033000080B270470838000808B5FCF7FFFFFDF75DF80028FBD04FF44060FDF798F808BD66
:2033200008B5FFF7D7FA08BD401A000B7047000070B50D4D29460D48FFF7F6FF86B2FDF7CE
:203340002FFAD120FDF74AFA0024B44209D22846FDF77EFA20B905F580550134A4B2F4E73E
:20336000FEE7FDF731FA70BD008000080000080810B50446FDF714FAD320FDF72FFA2046FD
:20338000FDF766FA00B1FEE7FDF71EFA10BDB0F1006F1BD370B504460D46164610F0030F3C
:2033A00000D070BDFDF7FCF9D320FDF717FA04EB4606B44207D229682046FDF781FA10B9F6
:2033C00004340435F5E7FDF7FFF9EAE77047B0F1006F0DD30023B3F5806F07D250F823201E
:2033E000B2F1FF3F06D101339BB2F4E700207047002070470120704708B5FFF785FFFFF706
:2034000091F96420FDF718F8FFF744FABFF34F8F034B42F210721A60FFF7B4FEFCE700BF0E
:203420003C080020DFF834D00D480E490E4A002302E0D458C4500433C4188C42F9D30B4A02
:203440000B4C002301E013600432A242FBD3FCF75DFF00F011F8FFF7CFFF704700000320D0
:203460000000002068030020103A000868030020E4180020FEE7000070B50D4D0D4C641B6C
:20348000A4100026A64209D10B4D0C4C00F02EF8641BA4100026A64205D170BD55F8043BFA
:2034A00098470136EEE755F8043B98470136F2E7083A0008083A0008083A00080C3A00087A
:2034C00002440346934200D1704703F8011BF9E70A44914200F1FF3300D1704710B511F86F
:2034E000014B03F8014F9142F9D110BDF8B500BFF8BC08BC9E467047F8B500BFF8BC08BC68
:203500009E46704700000000000000000102030406070809000000000102030400C201001B
:20352000000008003C3700083836000834350008540000201A0347004400330032002D0073
:203540004300440043005F00410043004D0000000000000000000000000000000000000071
:2035600000000000000000000000000000000000000000000000000000000000000000004B
:2035800000000000000000000000000000000000000000000000000000000000000000002B
:2035A00000000000000000000000000000000000000000000000000000000000000000000B
:2035C0000000000000000000000000000000000000000000000000000000000000000000EB
:2035E0000000000000000000000000000000000000000000000000000000000000000000CB
:203600000000000000000000000000000000000000000000000000000000000000000000AA
:2036200000000000000000000000000000000000000000000000000016034700690067005A
:203640006100440065007600690063006500000000000000000000000000000000000000B9
:2036600000000000000000000000000000000000000000000000000000000000000000004A
:2036800000000000000000000000000000000000000000000000000000000000000000002A
:2036A00000000000000000000000000000000000000000000000000000000000000000000A
:2036C0000000000000000000000000000000000000000000000000000000000000000000EA
:2036E0000000000000000000000000000000000000000000000000000000000000000000CA
:203700000000000000000000000000000000000000000000000000000000000000000000A9
:20372000000000000000000000000000000000000000000000000000000000000403090475
:203740000902430002010080320904000001020201000524001001052401000104240202C2
:2037600005240600010705820308000A09040100020A00000007050302400000070581027C
:20378000400000001201000202000040E9288A0100010102030100000000000001000000ED
:2037A0000200000003000000BB100008CD100008F7100008091100089F140008B710000891
:2037C0003D140008B7100008D51100082912000811130008151300084D130008E1130008D0
:2037E0000F14000839140008400040004000000000000300030201024D4B5300445249565E
:20380000455220424F4F54000000C1C081C1400101C3C003800241C201C6C006800741C791
:203820000005C1C581C4400401CCC00C800D41CD000FC1CF81CE400E000AC1CA81CB400BD8
:2038400001C9C009800841C801D8C018801941D9001BC1DB81DA401A001EC1DE81DF401FF8
:2038600001DDC01D801C41DC0014C1D481D5401501D7C017801641D601D2C012801341D3D8
:203880000011C1D181D0401001F0C030803141F10033C1F381F240320036C1F681F7403778
:2038A00001F5C035803441F4003CC1FC81FD403D01FFC03F803E41FE01FAC03A803B41FB58
:2038C0000039C1F981F840380028C1E881E9402901EBC02B802A41EA01EEC02E802F41EFF8
:2038E000002DC1ED81EC402C01E4C024802541E50027C1E781E640260022C1E281E3402358
:2039000001E1C021802041E001A0C060806141A10063C1A381A240620066C1A681A7406777
:2039200001A5C065806441A4006CC1AC81AD406D01AFC06F806E41AE01AAC06A806B41ABD7
:203940000069C1A981A840680078C1B881B9407901BBC07B807A41BA01BEC07E807F41BFF7
:20396000007DC1BD81BC407C01B4C074807541B50077C1B781B640760072C1B281B34073D7
:2039800001B1C071807041B00050C190819140510193C053805241920196C0568057419777
:2039A0000055C19581944054019CC05C805D419D005FC19F819E405E005AC19A819B405B57
:2039C0000199C059805841980188C04880494189004BC18B818A404A004EC18E818F404FF7
:2039E000018DC04D804C418C0044C184818540450187C047804641860182C0428043418357
:203A00000041C18181804040F1010008C901000800C2EB0BFF000000E50D0008C70D000849
:203A2000AD0C000800000000000000001B0D0008870D00086B0D0008000000000000000079
:203A400000000000843700084037000800000000243500083C370008383600083435000861
:203A6000540000201A030000000000000000000000000000000000000000000000000000B5
:203A8000000000000000000000000000000000000000000000000000000000000000000026
:203AA000000000000000000000000000000000000000000000000000000000000000000006
:203AC0000000000000000000000000000000000000000000000000000000000000000000E6
:203AE0000000000000000000000000000000000000000000000000000000000000000000C6
:203B00000000000000000000000000000000000000000000000000000000000000000000A5
:203B2000000000000000000000000000000000000000000000000000000000000000000085
:203B4000000000000000000000000000000000000000000000000000000000000000000065
:203B60000000000000000000240347004400330032005F0046003400320035002D0043007E
:203B8000440043005F00410043004D0000000000000000000000000000000000000000006E
:203BA000000000000000000000000000000000000000000000000000000000000000000005
:203BC0000000000000000000000000000000000000000000000000000000000000000000E5
:203BE0000000000000000000000000000000000000000000000000000000000000000000C5
:203C00000000000000000000000000000000000000000000000000000000000000000000A4
:203C2000000000000000000000000000000000000000000000000000000000000000000084
:203C4000000000000000000000000000000000000000000000000000000000000000000064
:203C60000000000000000000000000001603470069006700610044006500760069006300C8
:203C80006500000000000000000000000000000000000000000000000000000000000000BF
:203CA000000000000000000000000000000000000000000000000000000000000000000004
:203CC0000000000000000000000000000000000000000000000000000000000000000000E4
:203CE0000000000000000000000000000000000000000000000000000000000000000000C4
:203D00000000000000000000000000000000000000000000000000000000000000000000A3
:203D2000000000000000000000000000000000000000000000000000000000000000000083
:203D4000000000000000000000000000000000000000000000000000000000000000000063
:203D6000000000000000000000000000000005000080000801000000FFFFFFFFFFFFFFFFBD
:203D8000FFFFFFFFFFFFFFFFFFFFFFFFFFFFFFFFFFFFFFFFFFFFFFFFFFFFFFFFFFFFFFFF43
:203DA000FFFFFFFFFFFFFFFFFFFFFFFFFFFFFFFFFFFFFFFFFFFFFFFFFFFFFFFFFFFFFFFF23
:203DC000FFFFFFFFFFFFFFFFFFFFFFFFFFFFFFFFFFFFFFFFFFFFFFFFFFFFFFFFFFFFFFFF03
:203DE000FFFFFFFFFFFFFFFFFFFFFFFFFFFFFFFFFFFFFFFFFFFFFFFFFFFFFFFFFFFFFFFFE3
:020000040800F2
:020000040800F2
:20800000000002202DE2000841E2000841E2000841E2000841E2000841E2000841E2000825
:2080200041E2000841E2000841E2000841E2000841E2000841E2000841E20008C1E6000864
:2080400041E2000841E2000841E2000841E2000841E2000841E2000841E2000841E20008C8
:2080600041E2000841E2000841E2000841E2000841E2000841E2000841E2000841E20008A8
:2080800041E2000841E2000841E2000841E2000841E2000841E2000841E2000841E2000888
:2080A00041E2000841E2000841E2000841E2000841E2000841E2000841E2000841E2000868
:2080C00041E2000841E2000841E2000841E2000841E2000841E2000841E2000841E2000848
:2080E00041E2000841E2000841E2000841E2000841E2000841E2000841E2000841E2000828
:2081000041E2000841E2000841E2000841E2000841E20008F1E8000841E2000841E2000851
:2081200041E2000841E2000841E2000841E2000841E2000841E2000841E2000841E20008E7
:2081400041E2000841E2000841E20008C5E2000841E20008EDE100080A490B488B6810B491
:2081600003F18072094C03F101434FF0000C02F5B24203F5B24384F808C0836010BC8A608C
:2081800001207047200000202C00002004000020002070470F4B1B88D3B1B3F1010C0E4BF5
:2081A00010B418680D4C09D00022237802FB03F10B440132034462454350F6D12378084AE4
:2081C00010BC0CFB03FC002340F80C3010607047704700BF2E0B0020380B0020340B00207E
:2081E000300B002010B48268D0E90034EFF3108172B6DBB2012B07D0022B0BD0D2B2227040
:2082000081F3108810BC704792B2228081F3108810BC7047226081F3108810BC704700BF8A
:20822000704700BF30B58268EFF3108E72B61749174C4D682368521B022A49BF4968816813
:20824000023181609A688A1A002A0BDB9C461B689A688A1A002AF9DA0360CCF800008EF3A4
:20826000108830BD0B4A934208BF1B68036091604FF0E0230849106022604FF080600022EB
:208280005A619A6148608EF3108830BD001000E0040000201000002000ED00E0EFF3108CEB
:2082A00072B614490B68834202D110E083420BD01A461B68002BF9D14B68834204BF0E4B32
:2082C0004B608CF31088704703681360F4E70B4B026800B5D0F808E0C3F808E01A600B60BF
:2082E0004B68834204BF044B4B608CF310885DF804FB00BF0400002020000020100000208B
:2083000008B5014672B6014809F080FC640B002008B50320FFF7F4FF70B50E4D296891B9C0
:208320000D4E047833680D4803EBC40C84454FEAC4020BD898183060184609F059FC084ACF
:208340002860147070BD0920FFF7DAFF1020FFF7D7FF00BF400B00204800002000FE01203F
:208360003C0B002008B50720FFF7CAFF08B5054A537A23B1022B1CBF0023537208BD02206F
:20838000FFF7BEFF040000200FB42DE9F04FDFF8D4B19BF8003083B0DBB223B103B0BDE8E3
:2083A000F04F04B070470C9B9A786F4B93F8009009EB020401230DA8C02C8BF80030019082
:2083C000134600F2A5806949052A01EB09086FD90C9B0C991B88CF784D68541F7F2B08F106
:2083E0000202144406D9DA0962F07F0288F8022008F1030203F07F0302F8013B002F51D0F1
:208400009442C0F0AC802F4430E050F8043B03F120017F2922D903F58051B1F5804F18D3BF
:2084200003F50021B1F5001F0ED303F18061B1F1805F04D3190F61F07F0102F8011B590DDB
:2084400061F07F0102F8011B990B61F07F0102F8011BD90961F07F0102F8011B03F07F036C
:2084600002F8013BBD421DD0A24278D815F8013B052B55D0C9D9063B012B70D8064613460C
:2084800056F8081BA21A8A4228BF0A4603F8012B41681846924609F083FBBD4200EB0A0239
:2084A0003046E1D1A2EB08030333DAB209EB02042E4901F809202E4ADE1E127888F8012008
:2084C0004AD008EB060540464FF6FF7110F8012B4A4082EA0212D2B2090AD70041EA02214F
:2084E00087EA12125140A8420AB2EFD1090AD2B208F806101C4943440C701E4903F8022C4B
:2085000000207E2203F8012C08721B4B01221A7000238BF8003003B0BDE8F04F04B070470E
:2085200050F8046B3378511C6BB18C4202D811E08C420BD001F8013B16F8013F002BF7D198
:208540008B1A013BDBB213700A468BE7A31A013BDBB2F8E70023F6E7FF221146C8E70520B7
:20856000FFF7CEFE2A0B00209C0C0020DC0B00201C00002004000020A40C002000B50A4BDB
:208580000A4A5B7A11880A4A0A48126883B0003B009118BF0123003918BF0121FFF7F4FEE5
:2085A00003B05DF804FB00BF040000202E0B00208C000020541C0108024B03485968FFF704
:2085C000E3BE00BF001000E04C1C0108054A064B064952681B6809680548934288BF0131A2
:2085E000FFF7D2BE001000E0C00B0020C40B0020441C01082DE9F843224D234E2B68326864
:20860000081A0C460244591CB0F5803F2960326017D21E4F00FB00F0D7F800C0FF300CEBB6
:208620001023634538BF4FF0FF33DFF864801948D8F800903B60A0EB0900E0420DD5BDE8A3
:20864000F883B0F5801F114F18D2D7F800C000F1FF031B0A00FB03C3E3E70F48FFF794FE00
:20866000A14503D90D4A1368013313600023C8F800403B6033602B60BDE8F8834FF0FF3352
:20868000D3E700BF90000020C80B0020CC0B0020C00B0020009EEECD3C1C0108C40B002033
:2086A0002DE980489B4B9C495C6891F90830DFF86CA2DFF86C92DFF86C82DFF86CB289B0DE
:2086C000002B00F03782934B5A6872B691F90830002B40F0468462B68E4B5B689B1A234447
:2086E0000593924B8C491B780122DBB20A72D3B18E4A8F4D002313708E4B1E788E4B1F68C4
:20870000FF24621CD3B207EBC30308E053F8081BDFF828C2614504F1010200F01183D4B2BC
:20872000B4421846F2D3864B1B78DBB2D3B1844A844D002313707F4B1E787F4B1F68FF2492
:20874000621CD3B207EBC30308E053F8081BDFF8F8C1614504F1010200F01383D4B2B442D8
:208760001846F2D3794B1B78DBB2D3B1774A784D002313706F4B1E786F4B1F68FF24621C10
:20878000D3B207EBC30308E053F8081BDFF8C4C1614504F1010200F00D83D4B2B4421846F2
:2087A000F2D36D4B1B78DBB2D3B16B4A6B4D00231370604B1E78604B1F68FF24621CD3B2EC
:2087C00007EBC30308E053F8081BDFF894C1614504F1010200F00A83D4B2B4421846F2D3A5
:2087E000604B1B78DBB213B35F4D5E4AEC6800231370E4B1A369D3B1EB8C0293AB8C01939E
:20880000A38A0093AA7C697C287C04F11D0307F09BF9A18AA069C9003C3107F023F9EB8C55
:20882000AA8C0133B3FBF2F102FB1133EB844F4B1B78DBB2D3B14D4A4D4D002313703D4BF0
:208840001E783D4B1F68FF24621CD3B207EBC30308E053F8081BDFF81CC1614504F10102ED
:2088600000F05082D4B2B4421846F2D3424B1B78DBB223B1404A0023137005F0BBF83F4BB4
:208880001B78DBB2BBB13D4A00231370FF24294B1D78294B1E68621CD3B206EBC30306E059
:2088A00053F8081B514504F1010200F04581D4B2AC421846F4D3324B1B78DBB2BBB1304AEA
:2088C00000231370FF241B4B1D781B4B1E68621CD3B206EBC30306E053F8081B494504F157
:2088E000010200F03581D4B2AC421846F4D3254B1B78DBB2002B52D0224A00231370FF2424
:208900000C4B1D780C4B1E68621CD3B206EBC30341E000BF001000E00400002045C30008D0
:2089200091C3000891CA00080DD20008A00C00208C1C01083C0B0020400B002031A4000865
:208940004C000020941C010829A5000854000020CC1C010895B40008D80B0020DC1C010862
:2089600011BD000850000020000B002094000020EC1C01080DBB0008D00B00204400002092
:208980002C0B0020C00C002053F8081B414504F1010200F0E980D4B2AC421846F4D3824BE9
:2089A0001B78DBB2C3B1804A002313707F4B1D787F4B1E68FF24621CD3B206EBC30307E040
:2089C00053F8081B7B4FB94204F1010200F02081D4B2AC421846F3D3774B1B78DBB2D3B1DD
:2089E000754A764F00231370704B1878704B1E68FF24621CD3B206EBC30308E053F8081B8E
:208A0000DFF8BCC1614504F1010200F05A81D4B284421D46F2D36B4B1B78DBB2BBB1694B2F
:208A200000241C70FF25624B6A1C1B68D1B203EBC1035E49087806E053F8081B594505F168
:208A4000010200F09D80D5B285421E46F4D35E4B4AF6AA221A605D4B5A6872B65C4B1B68A2
:208A60009B1A002BC0F2608262B65A490B78DBB263B1594B1A7800230B70002A00F05782DC
:208A8000564B1978564B186806F0CCFA554A1378DBB21BB10023137006F0F2FC524A137893
:208AA000DBB22BB3514B1C780023137004B3504D0826402C2246C5F8886028BF4022BFF37F
:208AC0004F8FBFF36F8F4B4B1B6A190440F18082002BC0F27F824849012006F033FA0246A2
:208AE000AE60002804DDA41A40F065823F4B1C70424A1378DBB20BB100231370404A137859
:208B0000DBB25BB13F4B1B7800241470002B40F01B823D4B1B78002B40F00C822B4B0598E8
:208B20005C682146FFF766FD384991F90830002B7FF4C9AD0594D4E5406800283FF4BBAE9C
:208B4000037DDB077FF5A7AE214605F013F89EE6406800283FF4CBAE037DDF077FF5B7AE44
:208B6000214605F0A5F8AEE6406800283FF417AF437B002B3FF4C8AE214605F011F9BFE602
:208B80007668002E3FF463AF337F002B3FF45FAF06F1D30306F1C40206F1C201304607F0B5
:208BA0003BFC34773FE700BFBC0C00203C0B0020400B0020F9CA0008B80C002000007A44C7
:208BC00075CB0008FC0A002000300040001000E0D40B0020AC0C0020B40C0020B50C00202F
:208BE000B00C0020A80C0020A40C00209C0C002000E100E000090050DC0B0020600B002081
:208C00005C0B0020290B0020280B0020040000204768002F3FF4E0AE97F83030D8077FF521
:208C2000CAAE72B697F8303023F0010387F8303062B63B691A697B691A4202D1384605F0EA
:208C400041F997F87050690736D5D7F8360008F0EFFCAB4908F044FDAA4908F0F5FDB96FF6
:208C600008F034FCA84BAA075B68069320F0004600F13C81796F0791304605F0FD0508F0E3
:208C8000EBFEB8B107990846A04908F029FD0146304608F0C3FE68B197F88030002B00F0A4
:208CA0008181D7F88430069AD31A002B02DB002387F8803087F83050954B1D78954B1E686E
:208CC00079E66D68002D3FF4A6AE95F83430DB077FF58FAE72B695F8343023F0010385F87B
:208CE000343062B6284605F08BF9002840F09880894B1B78012B00F09E80854B1878854BD0
:208D00001E6876E6416800293FF4B0AD91F82030DA077FF599AD72B691F820308A6823F095
:208D2000010381F82030D1E9063162B6009128462146FFF729FB764B1E78764B1F6883E5D6
:208D4000416800293FF4EFAC91F8203058077FF5D8AC6D4B586872B691F8202091F8213000
:208D600022F0040681F8206062B6009002F0010221462846FFF708FB654B1E78654B1F68F6
:208D8000BFE44268002A3FF4EDAC92F82A1092F82B3099427FF4D4AC72B692F82A1092F8A3
:208DA0002B308B4200F08D8062B6594B1E78594B1F68C5E4416800293FF4F3AC0B7FFF2B10
:208DC0007FF4DDAC72B68B7C002B00F089804A7F0A7762B6CA7E1331009128462146FFF7FA
:208DE000D3FA4B4B1E784B4B1F68C8E44368002B3FF4F6AC1A7F11077FF5E0AC72B61A7F94
:208E000022F008021A7762B69A7F21462833D2082846FFF7B9FA3E4B1E783E4B1F68CDE4E1
:208E20003D4A3E49137841F823000133DBB2012B13707FF462AF394A394913680B601288C4
:208E40003549EA8600220A7095F870601A0C85F838201A0E85F8392071074FF0040285F8F8
:208E600035207FF54AAF1A0276D55B4223F07F4323F01F03584208F059F81FA3D3E900239E
:208E800008F0BEF8274B4FF0404208F0E3F908F0C9FA394608F024FCD5F8801008F016FB65
:208EA000194B5B680693B30720F0004066D4E96F08F0D2FD00286CD106F0FD0685F87060E4
:208EC0001BE7013382F82A30138B526962B621462846FFF759FA0E4B1E780E4B1F682FE417
:208EE00062B60B4B1E780B4B1F6848E4FA6F9A1A002ABFF6BFAEDFE6CDCCCCCCCCCC933F9C
:208F000066669E40FFFF7F4B001000E0000020413C0B0020400B0020440B0020480B0020DA
:208F200098000020FFFF5F412E4B1A609CE506F01FF9ABE52C4B2D4A19782D48FFF724FAC1
:208F40002C4A00231370E9E52B4B2C481978FFF71BFA2B4B1C70DCE523F0704020F01F00EC
:208F600089E72849FF230B7262B630BF72B6254B93F90830002BF7D1FFF7ADBB6B6F069A43
:208F8000D31A002BFFF6B9AEE96F08F065FD002892D0069B95F87110E86E6B6701F004FD58
:208FA00000268BE7069A97F87110F86EFA671D4601F0FAFC7EE6144B99181846224608F026
:208FC000FDFD104A00231372104A012313708DE5AE6088E50E4AD36943F00203D361AE6099
:208FE00086E500BFD40B0020000000204C0B0020841D0108280B0020A10C00207C1D010845
:20900000290B002004000020DC0B0020A40C002000080050B14AB248B24BB34C22F00302A1
:209020002DE980480025026045F2555140F6FF7219605D609A604CF6CC421A60D4F8FC2065
:20904000AA4BAB4842F08072C4F8FC201A6842F001021A6083B05D60FFF7E4F8EFF31082C5
:2090600072B64FF0E023202184F82310072119614FF080615D619D61616082F310889D4A63
:20908000536B43F080034FF0A04453632369002BFCDA994D994BE3602B6843F003032B6092
:2090A000A36B43F42013A3630022A2210B2005F05BFD0022A2210C2005F056FD9049914AC8
:2090C000914B50206062A1621031C4F80C111031C4F804118D4911608D4919618D4919606D
:2090E00001228D4B8D492A61A1611021A26083F8431308229A60A36B894943F48033A3631A
:20910000002240F232336A600B80531003F10053A3F51043D70793F8103A4CBF03F00F03E9
:209120001B09092B02F1010294BF30333733182A21F8023FE9D17B4D284605F09DFC764BE6
:20914000002440F2464142F22C02A960EA6083F835434FF400125A6082213220012205F06E
:2091600003FD224682212C2005F0FEFC22461D21684605F08BFD6C48FFF706F972B66B4854
:2091800008F03EFD10B962B6FFF78AFA72B6684B56495A7AD1F804B0002A00F0D081654B5B
:2091A00065499868624A88606448116053600B6018604FF0E0214C4B022454724FF00008B0
:2091C0004FF08062C1F81480C1F818805A605C4B5C4C83F80080FEF7DDFF5B4A5B4B107828
:2091E000D3F800C0FF264FF0110E721CD2B20CEBC202334604E0174652F8081BA14215D0A5
:209200000133DBB28342F6D3474697B197F83030D7E9061213F0100315BF734612048A61BF
:209220008A6187F83030C7F82880DEE77F681E46EBE7454EDFF81881FF24444B3178D3F8F2
:2092400000A0631CDBB20AEBC30304E0184653F8082B424535D00134E4B28C42F6D33A4E71
:209260003C4C4FF0FF0909F10102D2B230780AEBC2024B4604E0944652F8081BA14229D0A5
:209280000133DBB28342F6D3B846B8F1000F63D04046FFF703F808F10C00FEF7FFFFD8F857
:2092A0001C3033B100211A461B68C2E90011002BF9D10023C8F81C30A8F8203088F82230D8
:2092C000D1E740680028CAD0002141633C3000F089FEB2E7DCF804809946D6E7771200208E
:2092E000480000200030004000ED00E0001000E03800002000380240000800504018004017
:209300005000100000090050000B005002000008400008200200008800E100E01000040068
:209320005800002000500040241C0108640B00200400002020000020100000202C0000206D
:209340002A0B0020C59E00083C0B0020400B0020259E000831A40008DFF8E8917A4FFF2497
:209360007A486FF01005066899F80010631CDBB206EBC30304E09E4653F8082BBA4223D0B0
:209380000134E4B28C42F6D371484FF0FF0C0CF10102D2B206EBC202634604E0174652F8FB
:2093A000084B844233D00133DBB29942F6D84446002C2FD0237CDD07E9D5D4E902721C07DD
:2093C00048BF1204BA61E2E7DEF80430002BDBD0D3E9082EEFF3108172B61668F60604D5CC
:2093E000566BB64504BF1560D26C81F3108893F82B20002AB7D00132D96883F82A205A69AC
:209400000A445A619A601846FEF70CFFA8E77C689C46CDE7DFF82C814E4FFF264B4B98F876
:2094200000001968731CDBB201EBC30304E09C4653F8082BBA4224D00136F6B28642F6D339
:20944000404F4548DFF814C1A646FF260024721CD2B297F8009001EBC202334604E09246F9
:2094600052F8085B854217D00133DBB24B45F6D37246AAB1D568938A2B60C2F804C094610C
:20948000E5E7DCF80430002BDAD01A7918680021053301F037FBC1E7DAF804201E46E8E7C3
:2094A000284F2F4EFF24294B39781B68621CD2B203EBC20304E0184653F8082BB24228D08C
:2094C0000134E4B28C42F6D3EFF30383C3F3080343B14FF080736FF0060208B401A102B460
:2094E0001FB510471F48FEF79DFE1F4B002119721E481972012202701D48197202701D49E6
:209500005A720A7062B61C489A7A5946FEF73CFF39E64568002DD7D02B7F9B060BD5D5E91D
:209520000301012205F082FB2B7F03F0300343F001032B77B7E7D5E903329A61F4E7987278
:209540002DE600BF3C0B002029A50008400B00207D9800086D99000819B8000835B400089C
:2095600011BD00083800002004000020A40C0020A80C0020AC0C0020341C0108D0E90012F9
:2095800040F69A5399420DD8D2B2501840F69B53984202D9C1F19B02D2B2054B05480B4464
:2095A000FEF7F2BE024B034800220B44FEF7ECBE8C1D01081C1C0108D0E90031EFF310820D
:2095C00072B6DBB2012B08D0022B0DD00978C9B282F310880748FEF7D7BE098889B282F3A5
:2095E00010880448FEF7D0BE096882F310880148FEF7CABE641C0108034602485A68197851
:20960000FEF7C2BE5C1C010838B50A4D0A4B2C68211899420BD8C31C23F003030246234489
:20962000002120462B6008F0E3FA204638BD1020FEF766FE4800002000FE012038B50E4B92
:209640001A7803789A4214D90C4A126852F8331002EBC30569B90A49098851B9094942F886
:20966000331004465820FFF7CFFF63686860037438BD0A20FEF744FE3C0B0020400B0020EF
:209680002E0B00203D96000810B50D4B1C788442034612D910460B4A0FFA83FC126802EB51
:2096A000C30452F83C3043B9074B1B882BB942F83C10FFF7A9FF606010BD0A20FEF720FE6A
:2096C0003C0B0020400B00202E0B002030B5D0E9011283B0003A04466D4618BF01222846DC
:2096E00005F0D4FA054920780C22FFF7CDFF034695E8030083E8030003B030BDCD9600088F
:2097000008B50E20FEF7FCFD08B50D20FEF7F8FD70B5174E33883BBB164B174C19780329E0
:209720009CBF04211970154B05461868002203469C460B44A34210D80132B2F5004FF7D19B
:209740001446181AFFF760FF0D4B34801860FEF721FD0C4B2A681A6070BD12B194B263464F
:20976000EFE70F20FEF7CCFD0C20FEF7C9FD00BF2E0B0020340B002000FE01204800002041
:20978000380B00208C00002008B50B20FEF7B8FD10B50D4B02781B78934212D90B4B0C4993
:2097A0001B6853F832408C4203EBC20309D15B688268D3E900130AB18B6110BD1B048B6113
:2097C00010BDFFF7E1FF00BF3C0B0020400B0020CD9600084368034A003B18BF0123137039
:2097E000704700BF900D0020816982684B6910B4C46963404B6190F8303083F00103D9072F
:209800004CBFC168016980F830305B070A4403D4826010BC012070474369D11A0029F7DB33
:20982000034A42601A46826010BC0120704700BFE99B000890F820200849034642F004026E
:20984000002083F8202008729A68D3F818C004490120624408709A60704700BF04000020EE
:20986000A00C002000B5034683B0D3E90012684605F00CFA03B05DF804FB00BF70B504463F
:2098800082B00F4900781422FFF7FEFEA66861686D46B6FA86F252090446284605F0F6F9F5
:2098A00095E8030004F1080383E80300002E94F9103014BF092201221343237402B070BDD2
:2098C0007D98000830B5124B02781B78934283B01CD9104B10491B6853F832408C4203EB6F
:2098E000C20313D18468057958682A462146153008F056F9684601221D2105F0C7F92946FF
:20990000204603B0BDE8304005F076BFFFF73CFF3C0B0020400B00203D96000810B5104BF1
:2099200002781B78934218D90E4B0F491B6853F832408C4203EBC2030FD142685968002A6D
:2099400014BF0223002372B691F8442022F00202134381F8443062B610BDFFF715FF00BFD0
:209960003C0B0020400B0020259E000870B5114B02791B7893421AD90F4B10491B68044673
:2099800053F83200884203EBC20310D1257A0C4920785E6805F10802FFF776FE0571E16871
:2099A00006602A460530BDE8704008F0F9B8FFF7EBFE00BF3C0B0020400B00207D98000811
:2099C0006D99000810B5104B02781B78934219D90E4B0F491B6853F832408C4203EBC20313
:2099E00010D15C68406821680A4B4A68B3FBF0F322F4FD42023BDBB222F07F021343A060F1
:209A00004B6010BDFFF7C0FE3C0B0020400B0020D1A40008006CDC02134B1B7803B970471D
:209A200070B5124A037812789A4282B0044618D90F49104A096851F83330934211D1D0E918
:209A40000265012268461D2105F020F9F1B2284605F0D2FE6168084802B0BDE87040FEF797
:209A600093BCFFF791FE00BF900D00203C0B0020400B00203D960008741C010870B5214BBF
:209A80001A7803789A4282B039D91F491F4A096851F83330934232D11D4B1E4C8446D4F86B
:209AA000C82093E80300042A00908DF8041019DDD4F8C430184D6846A2F1050E591CE35CC6
:209AC00000F8013B85FB0136CB17013AC3EB661303EB43037245A1EB831305D0002AEDD18D
:209AE000C4E9313202B070BDC4E931320B48DCF800106B460522FEF747FC02B070BDFFF74B
:209B000043FE00BF3C0B0020400B00203D960008842B0108C40C0020ABAAAA2A6C1C010836
:209B200008B5134B01781B788B421ED9114B124A1B6853F83100904203EBC10315D15B6856
:209B400072B693F844001A6B5B69C0064CBFD21AA2EB5302002AB8BF524262B60748BDE8E5
:209B6000084002F14042FEF70FBCFFF70DFE00BF3C0B0020400B0020259E00087C1C01086A
:209B800010B5134B01781B788B4282B01DD9114B114A1B6853F83100904203EBC10314D182
:209BA000586872B690F82420C36962B6D0E903402469044214BF0124002408480094C2F329
:209BC0004002FEF7E1FB02B010BDFFF7DDFD00BF3C0B0020400B0020FDA30008841C010841
:209BE000406805F0F5BD00BF38B5836A002B00F084809A6819688162002A8569C46914BFE0
:209C00000121002127D12404AC61404C25681D60236090F83030B2FA82FC83F01004C4F36B
:209C200000144FEA5C1CA44531D0046A002C2ED08368856A41F004011C44002D53D190F894
:209C40003050446105F010050D43890780F830502AD5134435E0AC612C4C456AD4F800C0D2
:209C6000C3F800C095422360D3D9046A002C34D1846A90F83030002C45D103F0100343F073
:209C8000030380F830308368446113441DE0846A6CB100256468446141F0040103F0100325
:209CA0000B4380F8303055B98460012038BD03F010030B4380F830304461204638BD83685F
:209CC0001344191B0029EFDA456A1149AD1AC0E90113C0E90325012038BD8368856A072191
:209CE0001C44002DABD06D68641B002C08DB2C4690F8303001F00205CDE71420FEF700FBCF
:209D00001220FEF7FDFA03210225C3E7300B0020E997000810B50D4B02781B78934210D965
:209D20000B4B0C491B6853F832408C4203EBC20307D15B6872B69A6A2AB942685A6262B68F
:209D400010BDFFF721FD1320FEF7DAFA3C0B0020400B0020C59E000810B5114B02781B78BB
:209D6000934217D90F4B10491B6853F832408C4203EBC2030ED15B68416872B65A695AB961
:209D800093F84420996022F00802996183F8442062B610BDFFF7F8FC1520FEF7B1FA00BF83
:209DA0003C0B0020400B0020259E000810B5184B027893F800C0624524D2164B1B6853F84D
:209DC000321003EBC20E144A91421BD10179DEF80420614516D253F831401048844203EB9C
:209DE000C1030FD15B6802F13C00EFF3108172B6146C4CB90A4C1464DC69D463D86181F3B6
:209E0000108810BDFFF7C0FC1820FEF779FA00BF3C0B0020400B0020259E000831A4000852
:209E2000E59F0008F0B50546482283B021490078FFF72AFCEF68002FD4BF0022042280F832
:209E400044206E4604466968304604F01FFF96E8030004F1200383E803000022A968304697
:209E600004F014FF96E8030004F1280383E80300114B4FF04042198822632A69E261002390
:209E8000C4E90D33A1B90D4B19780F299CBF102119704AB9002F07DA94F8443043F01003EC
:209EA00084F8443003B0F0BD054B636003B0F0BDFFF72AFC259E00082E0B0020340B002040
:209EC00059A8000830B5D0E9011283B0003A04466D4618BF0122284604F0D8FE1349207838
:209EE0003422FFF7D1FB034695E8030003F1180282E80300D4E90221003A18BF012209B138
:209F000042F010020A4983F830200988206918620022C3E90A2239B9064B1A780B2A9CBFEC
:209F20000C221A7003B030BDFFF7EEFBC59E00082E0B0020340B002038B5254B02781B785D
:209F4000934240D9234B24491B68054653F83200884203EBC20336D15C682046FEF79EF9B3
:209F6000A36A93BB2A7994F83030D4E90651002A08BF0904A961B2FA82F283F010014FEAFE
:209F80005212C1F3001114BF012000208A4201D0226A2AB903F01003034384F8303038BD5B
:209FA0000E4903F01003496803430A4443F004030B4984F83030C4E9011262612046BDE807
:209FC0003840FEF72FB9FFF7DFFB1120FEF798F93C0B0020400B0020C59E0008001000E078
:209FE000E99B000838B504463C38FEF757F9237A54F8281C002244F8342C44F8242C54F822
:020000040800F2
:20A000000C2CD8064CBF521AA2EB510254E90501002A03F01403C8BF524243F0080344F8C7
:20A020000C2C00250904DA0644F8285C2372816111D554F8083C6BB10A48016800E0134619
:20A040001A6844F8082C1960036054F8082C1946002AF4D138BD54E907125B0758BF12048A
:20A060008A61E6E7300B0020F8B5224F02783B7893423CD9204E21493368054653F832005D
:20A08000884203EBC20332D15C682046FEF706F96B68A360AB68A3612B7B84F8253013B3F8
:20A0A0002969616184F826306B693A781449002B14BF0323022384F824302B7E61609A4238
:20A0C00015D9326802EBC30152F833200D4B9A420DD1EB694A6884F8273022622046BDE830
:20A0E000F840FEF79FB884F824302362F8BDFFF74BFB00BF3C0B0020400B0020FDA300085D
:20A1000055AA000831A4000838B51D4B02781B78934233D91B4B1C491B68054653F8320002
:20A12000884203EBC20329D15C6872B62046FEF7B5F804F10C00FEF7B1F8E36933B10021C4
:20A140001A461B68C2E90011002BF9D100220123238484F822206B68A360AB68C4E90632F2
:20A1600023B9EB6884F8223062B638BD2046FEF759F8EB6884F8223062B638BDFFF704FB06
:20A180003C0B0020400B002031A4000870B5124B02781B7893421DD9104B11491B68044634
:20A1A00053F83200884203EBC20313D15D6872B695F82030DB0701D462B670BD05F10C06F3
:20A1C0003046FEF76BF863686B613046FEF72AF862B670BDFFF7D8FA3C0B0020400B0020AE
:20A1E00031A4000838B5214B02781B7893423AD91F4B20491B68054653F83200884203EB5E
:20A20000C20330D15C682046FEF748F8D4E90830EFF3108272B61968C90617D482F3108840
:20A220006B686361A360AB6823612B7B84F82B305A1C84F82A202A69E260D5E90501EA6948
:20A2400084F829206083A18343B938BD596B8842E4D16FF010011960DB6CDFE72046BDE8FD
:20A260003840FDF7DFBFFFF78FFA00BF3C0B0020400B002029A5000838B5284B02781B7881
:20A28000934246D9264B27491B6853F832408C4203EBC2033DD15C68EFF3108172B6224A4F
:20A2A0001368002B37D01D68156081F3108845685D6082689A6072B6A26A0021196022B1FC
:20A2C000E26A1360E36262B638BD94F830205107C4E90A3316D442F0040384F830309307B6
:20A2E00065610AD42046FDF7D9FF104B2046C4E90135FDF797FF62B638BDA3685B1B002BA1
:20A30000F9DBEFE763695B1B002BE4DA1220FDF7F7FFFFF739FAFFF7F3F900BF3C0B00201B
:20A32000400B0020C59E0008300B0020E99B000808B5D0E908311A6812F0100F0AD092079B
:20A3400002D55A6B8A4209D0836803F552638360012008BD264A59639A60F5E76FF01002E8
:20A360001A6090F82A2090F82B10DB6C8A429BB21BD301228A42038380F82A2020D3428B89
:20A380009A4223D8828B9A4220D31A4B002280F8282000221A724369C168174A0B4401216E
:20A3A000117043618360012008BDB0F818C00132D2B263449BB28A42038380F82A20DED2C0
:20A3C0008368026913448360012008BD90F8283090F829200133DBB29A4280F82830054B99
:20A3E000D7D85A7A002AD1D11920FDF789FF00BF01000040040000204C00002030B50B4990
:20A4000083B0044628220078FFF73EF96D4603466168A26828461C4604F07EFC95E8030043
:20A4200004F10C0383E8030003B030BDFDA3000838B50F4B1A7803789A4216D90D4C226860
:20A4400052F83310DD0081B90B49098869B90B4942F833102420FFF7D7F823680849094A48
:20A460002B4458604160026138BD0A20FDF748FF3C0B0020400B00202E0B002031A400084F
:20A48000359800088DAA000838B50D4B1A7803789A4212D90B4C226852F83310DD0061B92A
:20A4A0000949098849B9094942F833101420FFF7ABF823682B44586038BD0A20FDF720FF37
:20A4C0003C0B0020400B00202E0B00207D98000870B5104B1A7803789A4218D90E4D2A68ED
:20A4E00052F83310DE0091B90C49098879B90C4942F83310044641F20C00FFF785F82B682E
:20A500006168084A33445860C0E9011270BD0A20FDF7F6FE3C0B0020400B00202E0B0020CB
:20A52000D1A40008801A060000232DE9F041244A456806461C4604E00134232C3CD012F84D
:20A54000013F9D42F8D1122C1ADCDFF878804046474604F0D7FAE0B1FE2D27D11A4B4FF4DC
:20A5600000025A602C2219493078FFF78DF80123174A80F82A30C0E908744260BDE8F08118
:20A58000DFF85080144F4046133C04F0BBFA0028E2D1404604F070FA104BFB6003F1005377
:20A5A0003B61FE2D4FF00103BB60D7D000222846032104F0D9FAD5E72B20FDF7A1FE00BFFB
:20A5C0008C2B0108002001400023014029A5000831A3000800280140002201402449920475
:20A5E0002DE9F8432F4B02781B78934251D92E4B2E491B6853F832408C4203EBC20348D1BA
:20A60000047A5D68032C49D82B7C13F0060F45D14368C768062B3ED8254A03EB430302EB21
:20A62000830852F82360304604F06CFA8146A8B1204800231946013320FA03F2974226D2D4
:20A64000082BF7D138212B7C214343F0040341F451712B74C5E90061BDE8F883304604F032
:20A660000BFA98F8071098F80400012204F07CFA98F8081098F805004A4604F075FA98F84D
:20A68000091098F806004A4604F06EFAD0E7C900D9E7FFF779F82F20FDF732FE1A20FDF7D7
:20A6A0002FFE00BF3C0B0020400B00207D980008B02B010880DE800210B53A4B02781B78A4
:20A6C000934269D9384B39491B6853F832408C4203EBC20360D142685C68002A5ED1344829
:20A6E00004F010FA00282FD0314A3249536823F4FD4323F07F0343F076035360536803205B
:20A7000023F4807353601060D1F8FC30DB010FD529494A6802F5A42280324B689B1A002B31
:20A72000FBDB234B5A6842F480725A60236010BDD1F8FC30204A43F08073C1F8FC301368FC
:20A7400043F001031360E3E7194804F095F9012240F2C221282004F007FA012240F2C221F5
:20A76000292004F001FA012240F2C2212A2004F0FBF9012240F2C2212B2004F0F5F90122AF
:20A7800040F2C221322004F0EFF9012240F2C2212C2004F0E9F9A7E7FEF7F6FF3020FDF760
:20A7A000AFFD00BF3C0B0020400B0020D1A40008002C014000ED00E0001000E0426B12B93D
:20A7C00042611046704710B4D2E90043B2F9081001824463CC1890F84410C460C9061AD578
:20A7E0001B4C6168846801F5AF7123445C1A33EA240328BF0B46518941618360137BDB07FF
:20A800001CD4036B0B440363124B10BC1968116001201A6070470E49C46949682144846931
:20A8200023445C1A002C83618360BCBF8161816051894B004361137BDB07E2D5036B846ABE
:20A84000C91A63690163C16A4B406361DCE700BF001000E0300B0020D0E9082138B5536913
:20A860004B401649536143694D68C269013B1544DA070446436102D5A560012038BD7BB12C
:20A88000C1688369B0F910200B440A44591B00298361C260B8BF8561EEDB8360012038BD6B
:20A8A000FFF78CFF0028E9D0A3685B1BE6D5044A9342E1DA1720FDF723FD00BF001000E022
:20A8C000C06FFDFF10B5344B02781B7893425BD9324B33491B6853F832408C4203EBC20339
:20A8E00052D15C68EFF3108272B62E490B68002B4FD0D3F800C0C1F800C082F310884268E6
:20A900005A6002895A81002A40D0C068188100221A7372B694F8442002F0010CC2F3400061
:20A92000844505D0187B40F0010082F0010218736069B8B912F0080004D00A681A600B6046
:20A9400062B610BD616B84F844201860A9B1A26B1360A3632046FFF731FF2046FDF762FCCA
:20A9600062B610BD616B84F844200020186039B1A26B1360A36362B610BDC4E90D33E9E79C
:20A98000C4E90D3362B610BDFEF7FEFE1620FDF7B7FCFEF7B5FE00BF3C0B0020400B0020DE
:20A9A000259E0008300B002090F82030DA071ED570B523F005030446C06984F8211043F032
:20A9C00004030E4684F8203050B10025D0E900233146E261C0E900559847E0690028F5D180
:20A9E000034B00221A72034B01221A7070BD704704000020A00C002010B5D0E9032312696D
:20AA000090F824401A4218BFE44304F001046CB990F82630013B13F0FF0311D082688169FE
:20AA200080F826300A448260012010BDC26990F82530074980F82630C0E90112012010BD5A
:20AA400090F82710006AFFF7AFFF204610BD00BF55AA0008D0E9023210B41469D0E9041233
:20AA60001A4490F824300C4218BFDB4303F001031BB1826010BC01207047034B10BCC261D3
:20AA80004360FFF7B9BF00BFF9A9000808B503460C38997DFFF788FF002008BD30B5154B35
:20AAA00005781B78AB4283B022D9134B134A1B6853F83510914203EBC50319D15C6872B63E
:20AAC00001792046FFF770FF2046FDF7E7FB04F10C00FDF7E3FB002294F8213084F8202067
:20AAE00062B6074800922946FDF74EFC03B030BDFEF74AFE3C0B0020400B002031A4000824
:20AB00008C1C01082DE9F04F057C15F0060F83B034D015F0020C0468174632D14668226846
