:020000040800F2
:20000000D0300020C11D0008AD1D0008AF1D0008B11D0008B31D0008B51D000800000000AC
:20002000000000000000000000000000B71D0008B91D000800000000BB1D0008FD1B000806
:20004000D11D0008D51D0008D91D0008DD1D0008E11D0008E51D0008E91D0008ED1D000880
:20006000F11D0008F51D0008F91D0008FD1D0008011E0008051E0008091E00080D1E00085C
:20008000111E0008151E0008191E00081D1E0008BD1D0008211E0008251E0008291E0008A9
:2000A0002D1E0008311E0008351E0008391E00083D1E0008411E0008451E0008491E000838
:2000C0004D1E0008511E0008551E0008591E00085D1E0008A70C0008611E0008651E0008EC
:2000E000691E00086D1E0008711E0008751E0008791E00087D1E0008811E0008851E000818
:20010000891E00088D1E0008911E0008951E0008991E00089D1E0008A11E0008A51E0008F7
:20012000A91E0008AD1E0008B11E0008B51E0008BFF34F8FDFF84C170A6802F4E062DFF820
:20014000480702430A60BFF34F8F00BFFDE770B5DFF83847E068022820690FD2002820D1FE
:2001600002221146012000F039FB4FF47A7060610120607142F21070206112E0002810D1AF
:200180004FF4004000F072FC02221146012000F025FB4FF47A7060610120A07142F21070FE
:2001A0002061DFF8EC5605F60806B078012811D1E07901280ED10A21284600F0E1F900F0B5
:2001C00061FA002803D03188284600F019F842F2107020616079012807D16069002804D1CC
:2001E000BDE8704000F062BC70BDA0790128FBD160690028F8D100F04FFBFFF799FF00BF20
:200200002DE9F84189B0DFF884562879002804D0022800F0B88045D3ADE1E868002840F068
:20022000AA810120E860DFF86806B0F808180844801E0178012908D14078002805D10222DD
:200240000121002000F0CAFA95E168460FF26061142200F045FC0521684600F085FC0146CF
:20026000091204220DF1010402E09B5CA354521E6B46002AF9D5A5228DF800209971D87192
:200280000022642105F11C0000F08AFC0822694605F11C0000F024FC082105F11C0000F009
:2002A000E9FC68E1E868012840F065810220E860DFF8DC450322B4F80818204600F093F94C
:2002C000A4F808082178012926D16078002823D10222B4F80818204600F085F9A4F8080854
:2002E0000020DFF8B01509E00B68521E121AA25CC500AA4013430B60401CC0B2B4F8082832
:200300009042F1DB4FF4004000F02AFB01221146084600F063FA2EE102291ED16078012868
:200320001BD1DFF8700541680068B1EB902F09D24FF4004000F09AFB02221146012000F0AA
:200340004DFA04E001220221104600F047FA4FF47A706861012068710DE1022940F00B81E0
:200360006078022840F007814FF4004000F07EFB02221146012000F031FA4FF47A7068612A
:2003800001206871F7E0E868012840F2F480401CE860DFF8FC740322B7F80818384600F020
:2003A00022F9A7F80808DFF8EC6438787978090441EA0061B87841EA0021F8780143716011
:2003C000387997F8058048EA0028A6F80C807468002C02D0B06884427AD03068800AA042CE
:2003E00076D33069401C3061B4600622B7F80818384600F0F8F8A7F808080446B0898442CD
:2004000040F0B98000224FF4806106F1180000F0C7FB2246394606F1180000F061FB002208
:200420002146384600F0BCFB06F1180070614FF4007206F11801A86900F0CBFAA86900F5BF
:200440008060A86100220421284600F0A9FB00220221684600F066FC032006E07168C20081
:20046000D140EA1C4342D154401E0028F6D5B6896F467E7001A80FF26041202200F030FBE0
:2004800001AC2878207168786071A878A071E878E071360A2672787860720A210DF1050023
:2004A00000F062FB0146090AE17220730022642105F11C0000F074FB0D2201A905F11C00AC
:2004C00000F00EFB0D2105F11C0000F0D3FB52E0002C02D0B06884424BD13068800AA042F7
:2004E00047D300220421284600F05AFB00220221684600F017FC032006E0C1002246CA40B6
:20050000E91C4342CA54401E0028F6D56E4686F8018001A80FF2E031202200F0E1FA01ACBA
:200520002878207168786071A878A071E878E0714FEA182884F80880707860720A210DF197
:20054000050000F011FB0146090AE17220730022642105F11C0000F023FB0D2201A905F1C4
:200560001C0000F0BDFA0D2105F11C0000F082FB01E00120E86000F06BF90AB0BDE8F0819D
:20058000C34800F6080102780A7142784A718278C07840EA0220C880801D08800879A528AE
:2005A00001D0012070474879002806D0012808D002280FD0FE2811D013E00020B34908713A
:2005C0000FE0B248C168032901D30121C1600121017106E00220AD49087102E00320AB49C2
:2005E00008710020704738B50D461446914201D2002032BD04D1002200F094FB002032BDD7
:20060000002103E08A18825C4254491C22462B469B1A9942F6DB00222146184400F082FBCF
:200620002D1B284680B232BD38B50B461446914201D2002032BD04D1002200F073FB002021
:2006400032BDC118891E0A784D7845EA0225002221461B1B184400F065FB284632BD70B5A1
:2006600004461D46FFF7BFFF06462A4631462046FFF7DAFF8649A1F8100C751B284680B2FD
:2006800070BD000070B586B0814D02230122B5F808182846FFF7E3FFA5F808080146284647
:2006A00000F062FAB5F8101C814200F09380774C2079022802D0E06801285BD9002204210B
:2006C000684600F06DFA7349086900280ED04868401C4860032107E0CA000346D3400DF1FF
:2006E00003024E429355491E0029F5D50322B5F808182846FFF777FFA5F808080DF10400A8
:2007000085A1142200F0ECF901AE9DF80000F07068464178317181787171C078B071287926
:20072000F071687930720A2101A800F01DFA01460912092204E0B35C01AD15446B70521E28
:20074000002AF8D5A5228DF804208DF80F1030730022642104F11C0000F022FA0D2201A94E
:2007600004F11C0000F0BCF90D2104F11C0000F081FA2BE04FEA0D0052A1142200F0B0F906
:200780000421684600F0F0F901460912032204E09B5C6D4615446B70521E6B46002AF7D54D
:2007A000A5228DF80020597198710022642104F11C0000F0F5F90722694604F11C0000F08B
:2007C0008FF9072104F11C0000F054FA00F040F8002000E0012006B070BD000078B585B08C
:2007E00004460D461646684650A1142200F078F98DF800408DF803506C4626710521684610
:2008000000F0B2F901460912042204E0A35C6D4615446B70521E002AF8D5A5228DF8002018
:200820008DF806108DF80700184C0022642104F11C0000F0B5F90822694604F11C0000F0FD
:200840004FF9082104F11C0000F014FA06B070BD10B50F4C04F500600021416001608160B8
:20086000A4F8101CC1600A464FF40061204600F097F900224FF4806104F50160BDE8104020
:2008800000F08EB90CED00E00400FA050400002084000020980C002080B540F2023000F030
:2008A00083FA40F20E30BDE8024000F07DBA0000FE0001030000000000000000000000003B
:2008C00000000000FE00010100000000000000000000000000000000A5020007000000006A
:2008E000000001000000000000000000000000000000000000000000A50200070000000049
:200900000000010000000000000000000000000000000000000000000200070000000000CD
:200920000002000000000000000000000000020000000000000000000000000000000000B3
:2009400080B5401AB0FBF2F000F0DAFA41EC100B00F0E4FA51EC100B00F014FB80B202BD59
:200960002DE9F04104464FF4006221464FF40030FFF7E6FF054604F1006400F01FFB40F2AC
:200980000536304600F0EDFB4FF4417000F0E9FB40F20237384600F0E4FB4FF0000806E021
:2009A000204600F039FB04F5006408F10108404680B2A842F4DB304600F0D3FB4FF44170B5
:2009C00000F0CFFB384600F0CCFBBDE8F04100F011BB70B504460D461646B4F1006F21D370
:2009E00014F0030F1ED100F0E9FA04EB46060DE0241D2D1D40F2053000F0B3FB4FF4417073
:200A000000F0AFFB40F2023000F0ABFBB44205D22968204600F05AFB0028E9D0BDE8704003
:200A200000F0E8BA70BD70B5044600F0C7FA40F20535284600F095FB4FF4417000F091FB0D
:200A400040F20236304600F08CFB204600F0E4FA284600F086FB4FF4417000F082FB304655
:200A600000F07FFBBDE8704000F0C4BA00F10060D9E730B5016884684218416802EB5103BA
:200A8000C90703D54C4401E0491C08D19A4218BF12F9011B01D10C3030BD12F8015B00299B
:200AA00004F8015BF0D4491EF7D5EFE780B5252000F00AFC0748016849084900016007489F
:200AC00001684068054A044B1A6081F30888BDE80240004710E000E008ED00E0008000088E
:200AE000103A07D330B4B1E83810103AA0E83810F9D230BC530724BFB1E80810A0E80810AE
:200B000044BF51F8043B40F8043BD20724BF31F8022B20F8022B44BF0B7803707047121F9B
:200B200017D35B0009D151F8043B20F8023B1B0C121F20F8023BF6D20BE051F8043B00F8D9
:200B4000013B1B0A20F8023B1B0C121F00F8013BF3D238BF121D521E24BF11F8013B00F8D8
:200B6000013BF8D870470000F0B402464FF6FF70034600240BE0094D03F0FF0612F8017BE6
:200B80007E4035F8165085EA23239BB2641C8C42F1D35840F0BC7047000000005418000881
:200BA00062F30F2262F31F4200B500BF130096469446103928BFA0E80C50FAD85FEA417CD0
:200BC00028BF0CC048BF40F8042BC90728BF20F8022B48BF00F8012B00BD000010B54FF408
:200BE000C06000F0D3F840F20364204600F0CEF8204600F0CBF840F20E6000F0C7F80121DB
:200C0000042000F0E8FB414C402303221821204600F07AFB8023032204212046BDE810407C
:200C200000F072BB10B5FFF7D9FF00221146252000F0FBFA364C204600F004FC4FF4E13134
:200C4000204600F042FC0421204600F07CFC0821204600F06DFC40F20531204600F097FCD4
:200C60004FF44171204600F092FC2046BDE8104000F058BCF8B504460D460026244F0CE06D
:200C80003046C0B2215C384600F068FC0721384600F06EFC0028F9D0761C30462946C0B243
:200CA0008842EDD3F1BD38B5194C1A4D2946204600F07DFC002814D02946204600F093FCA5
:200CC000204600F050FC144901F500621368C8541068401C10600120907200200F490870CF
:200CE00031BD0F4D2946204600F061FC00280BD02946204600F077FC0120084908702046FD
:200D0000BDE8324000F02FBC31BD0000000C01400038014005030500840000200B00002051
:200D20000403040062F30F2262F31F42401810F0030308D0C91A1FD3DB0748BF00F8012D52
:200D400028BF20F8022D130030B414461546103928BF20E93C00FAD8490728BF20E90C0026
:200D600048BF40F8042D890028BF20F8022D48BF00F8012D30BC7047C91818BF00F8012D9E
:200D8000CB0728BF00F8012D704700000246DFF83C1101EB92110A68012300F01F0003FA20
:200DA00000F01043086070470246DFF8201101EB92110A68012300F01F0003FA00F010430D
:200DC000086070470246DFF8041101EB92110A68012300F01F0003FA00F022EA000008602B
:200DE0007047000070B588B0054600240DF110003BA11022FFF774FE0DF108003CA1D1E94F
:200E00000023C0E9002368463BA1D1E90023C0E900232F490868C0F3810002282FD10868FA
:200E200000F48030B0F5803F0ED1886A10F0804001D1284800E028480A6802F40032B2F546
:200E4000003F02D1400800E024480A68C2F383420B681B0101D542F010020B685B0001D5B3
:200E600042F020020F2A01D2921C06E0A2F10F03302B01D2521C00E03F22504300E015482C
:200E80000A68C2F3031204AB9B5C0246DA400B68C3F3022302AEF65C1346F3400968C1F30D
:200EA000C2216E46765C1146F140032D0AD8DFE805F002040608044604E0144602E01C4693
:200EC00000E00C46204608B070BD0000001002400410024000127A00006CDC0200093D00D1
:200EE0000000000000000000010203040607080900000000010203040000000001020304B6
:200F000050B1B0FA80F18840C91CC1F58461090501EBD021400570470146704751EC100B30
:200F200000B500F003F841EC100B00BD40F2FF7C1CEA115240F2FE33D21A18DD352A1FDA5A
:200F4000B2F1150309DA6FEA4C53D340094201D4401E59410020994370476FF00002DA40A2
:200F6000094202D4801851F100019043704750EA41021CBF591C090528BF4FF00041002089
:200F800070470000C1F30A5340F21E42D31A0CDDCA0283F3070342EA505242F00042DA4079
:200FA00002EBE17282EAE17070476FEAE17203F2E13008B182F0004070470000DFF80402CC
:200FC000C168090605D5DFF800120160DFF8FC110160DFF8FC11098840F20122914208D3F8
:200FE000C16C090605D5DFF8E0110164DFF8DC1101647047DFF8DC01016841F0800101609E
:20100000DFF8CC11098840F20122914203D3016C41F080010164704770B50446DFF8B85103
:20102000DFF8AC01008840F20121884236D3DFF8AC018442284616D200F0D6F8010044D109
:20104000DFF89061306840F0020030607460306840F040003060284600F0C6F8316821F03C
:201060000201316070BD00F0CDF801002DD1DFF86461306C40F0020030647464F068800746
:2010800000D57460306C40F040003064284600F0B9F8316C21F00201316470BD284600F027
:2010A000A3F8010011D1DFF82C61306840F0020030607460306840F040003060284600F02A
:2010C00093F8316821F00201316070BDF8B504460D46DFF80461DFF8F800008840F20121E9
:2010E00088422AD3DFF8F4008442304612D200F07BF8010034D1DFF8DC70386840F00100E1
:2011000038602560304600F06FF83968490849003960F2BD00F076F8010021D1DFF8B47016
:20112000386C40F0010038642560304600F06AF8396C490849003964F2BD304600F054F8B4
:2011400001000DD1DFF88C70386840F0010038602560304600F048F8396849084900396075
:20116000F2BD174901EB90110A68012300F01F0003FA00F0104308607047002018490A68DC
:20118000D20701D5012070470A68D20601D5032070470968490700D50220704700201149E5
:2011A0000A68D20701D5012070470A68D20601D5032070470968490700D5022070470000CD
:2011C000002002400420024023016745AB89EFCDE0F7FF1F102002400000FF0FFFFF070805
:2011E0000C2002404C20024010B50446FFF7C5FF641E0146012901D1002CF7D1012900D156
:20120000042010BD10B50446FFF7C8FF641E0146012901D1002CF7D1012900D1042010BD6C
:201220003249084332490860704770B504460D461646002001462E4A136803F4E063B3F5F4
:20124000E06F01D1042128E0106800F4E060B0F5C06F02D1012003211FE0106800F4E060FD
:20126000B0F5A06F02D10220014616E0106800F4E060B0F5806F02D1032001210DE01068CB
:2012800000F4E060B0F5407F01D1042005E04FF4A060FFF7C5FF022001462246C0F1040058
:2012A00085400F20C1F10401C840064035432D0110488554012004F01F0400FA04F40E48DE
:2012C000521140F8224070BD012200F01F018A400A49401141F820207047094A1140084324
:2012E00008490860BFF34F8F704700000000FA050CED00E000E400E000E100E080E100E050
:2013000080FFFF1F08ED00E0F0B401F00F04CD060BD5042A07D144F0030400F13C02156813
:201320001D43156001E022431446002224E0482920D1012797401F4000F1100CCCF8007011
:2013400018E01D46D540ED0715D505462E6897004FF00F0C0CFA07FC26EA0C0604FA07F746
:201360003E432829E3D1012797401F4000F1140CCCF800702E60521C082AE2D30822061D14
:2013800025E0482921D1012797401F4000F1100CCCF8007019E01D46D540ED0716D5356859
:2013A00002F1F807BF004FF00F0C0CFA07FC25EA0C0504FA07F73D432829E2D1012797407A
:2013C0001F4000F1140CCCF800703560521C102AE1D3F0BC704770B4194A002801D5936994
:2013E00000E01368C0F3034485B200F44016B6F5401F06D123F0E063146824F0E064146098
:2014000010E0C60206D5032606FA04F4A34343F0E06307E00446640D240105FA04F4A34318
:2014200043F0E063002904D00146490D09018D402B43002801D5936100E0136070BC70472F
:201440000400014010B53249884215D0314988421CD03149884223D0304988422AD030493B
:20146000884231D140F20E342046FFF79DFC2046BDE81040FFF7A6BC40F211442046FFF7A1
:2014800093FC2046BDE81040FFF79CBC40F212442046FFF789FC2046BDE81040FFF792BC0C
:2014A00040F213442046FFF77FFC2046BDE81040FFF788BC40F214442046FFF775FC20467A
:2014C000BDE81040FFF77EBC10BD38B504460D46002021460E4A91420FD00E4A91420CD0F8
:2014E0000D4A914209D00D4A914206D00C4A914206D10320FFF776FC02E00220FFF772FCF6
:2015000000EB5500B0FBF5F080B20834206031BD0044004000480040004C004000500040F7
:20152000003801400C30016841F40051016070470C30026822F008020260026801F0080167
:201540001143016070470C30026822F004020260026801F00401114301607047C1F3080176
:20156000001D01607047001D0068C0F3080070470A46C2F389121018006801F01F01C840F6
:2015800000F00100401E8041C043C00F70470A46C2F389131B18C2F38912101800680122DB
:2015A00001F01F0102FA01F101431960704710B40123C1F389121218126801F01F0403FACC
:2015C00004F4224000EB91500068090C01F01F0103FA01F1014003D0002A01D0184600E01B
:2015E000002010BC704701220B461B0C03F01F039A40D24300EB915002607047D0F8B0004C
:2016000040690047D0F8B000006900472DE9FC41724D6868ADF80200686800F47F40ADF801
:2016200000002868BDF800100840ADF800006C484668BDF80000000449D4BDF80000C004B7
:201640000AD56FF480506860F078B070707A002802D13046FFF7D2FFBDF80000000508D56F
:201660002868C00605D4304600F0BEF86FF400606860BDF80000800509D56FF400706860E1
:2016800058480168002902D0304609688847BDF80000C00540F18E806FF480706860B07993
:2016A000002800F08780401EB071C0B2002840F08180707A0028286875D020F01000286032
:2016C0000020707276E000213046B26F90476868ADF802000004B0D5BDF8024004F00F0425
:2016E0003D4800EB8400BDF80210C90601683CD50904ECD5016840F68F721140016000685E
:20170000000502D5002CDED062E004EB440016EB800707F11808002220460146D8F804005B
:20172000D6F8B0301B6B9847D8F804100144C8F80410B8F80A104118A8F80A10B8F80820E4
:2017400089B2914203D2B8F80010884206DAFA6F002ABCD0214630469047B8E721463046ED
:20176000D6F8B020926A9047B1E70906AFD5016848F60F721140016004EB440006EB80004F
:2017800000F148010B89002B07D1D0F88020002A9DD021463046904799E74A6821463046B6
:2017A00000F032F893E740F0100028600320B07101207072BDF80000400509D56FF480606B
:2017C00068603046D6F8B010C969BDE8FC410847BDE8F38100000000005C0040405C004049
:2017E000B0100020C41000208178C17004218170C179002900D005E70321817170470000E9
:2018000041600281438170472DE9F041064614461D4601F07F01084600EB400206EB82007A
:2018200000F14807B7F8008028464246904200D2A84642462046D6F8B030DB6A9847434668
:20184000A5EB08052A4692B204EB08013846BDE8F041D5E70000C1C081C1400101C3C003A4
:20186000800241C201C6C006800741C70005C1C581C4400401CCC00C800D41CD000FC1CFE0
:2018800081CE400E000AC1CA81CB400B01C9C009800841C801D8C018801941D9001BC1DB40
:2018A00081DA401A001EC1DE81DF401F01DDC01D801C41DC0014C1D481D5401501D7C01780
:2018C000801641D601D2C012801341D30011C1D181D0401001F0C030803141F10033C1F320
:2018E00081F240320036C1F681F7403701F5C035803441F4003CC1FC81FD403D01FFC03F60
:20190000803E41FE01FAC03A803B41FB0039C1F981F840380028C1E881E9402901EBC02B7F
:20192000802A41EA01EEC02E802F41EF002DC1ED81EC402C01E4C024802541E50027C1E7FF
:2019400081E640260022C1E281E3402301E1C021802041E001A0C060806141A10063C1A35F
:2019600081A240620066C1A681A7406701A5C065806441A4006CC1AC81AD406D01AFC06FDF
:20198000806E41AE01AAC06A806B41AB0069C1A981A840680078C1B881B9407901BBC07B3F
:2019A000807A41BA01BEC07E807F41BF007DC1BD81BC407C01B4C074807541B50077C1B77F
:2019C00081B640760072C1B281B3407301B1C071807041B00050C190819140510193C0539F
:2019E000805241920196C056805741970055C19581944054019CC05C805D419D005FC19F5F
:201A0000819E405E005AC19A819B405B0199C059805841980188C04880494189004BC18B7E
:201A2000818A404A004EC18E818F404F018DC04D804C418C0044C184818540450187C047FE
:201A4000804641860182C042804341830041C1818180404082B04848016841F470010160B7
:201A60004649086840F00100086008688007FCD5486840F0800048600020009002E00098D4
:201A8000401C009000985028F9D3486840F0900048600020009002E00098401C00900098B8
:201AA0005028F9D348688008800048600A68344802400A604FF41F008860086820F480207A
:201AC000086000204860C86202B000BF00BF00222A49086840F480300860521C086810F449
:201AE000003003D14FF6FF708242F6D10868800300D4FEE7C86940F08050C861214A1068BA
:201B000040F4404010604868486048684860486840F480604860486820F4403048604868F9
:201B200040F4403048604B68174803404B604B68164803434B60086840F0807008600868EF
:201B40008001FCD5106840F4803010605068C003FCD5106840F40030106050688003FCD5C3
:201B60004868800880004860486840F00200486048680007FCD5704788ED00E00010024095
:201B8000FFFFF6FE00700040FFFFC3B7000034080901020002D42A4881547047294802F0AC
:201BA0000F02104400F8041C704738B50446641EB4F1807F0AD2244D6C600F214FF0FF30DD
:201BC000FFF7E6FF0020A86007202860B4F1807F8041C043C00F32BD80B51C4800684FF4E9
:201BE0007A71B0FBF1F0FFF7E0FF002800D0FEE700214FF0FF30BDE80440C9E714480078C0
:201C0000002803D013480168491C016012480168491E016011480168491E01601049086861
:201C2000002802D00868401E08600E4801780E480078014303D00D480168491E0160704783
:201C400000E400E018ED00E010E000E000000020C8100020C0100020BC10002014000020E3
:201C6000B8100020090000200A0000201800002030B4002512E050F8042BD30744BF4A4414
:201C8000521E091F042942F8045BFAD213468C0744BF15809B1CC90748BF1D7050F8041B14
:201CA0000029E8D130BC704780B500214FF00060FFF713FB4FF44070FFF7B2FAFFF7CAFE53
:201CC000FFF78AFFFEF7AEFF4FF47A6002490860FEF73DFAFCE700BF1400002010B50749FC
:201CE00079441831064C7C44163404E00A68081D114488470146A142F8D110BD2C000000F7
:201D0000480000004EF68851CEF20001086840F470000860BFF34F8FBFF36F8F4FF0017031
:201D2000E1EE100A7047000049FFFFFF4810000084000020000000003BEDFFFF7C0100001E
:201D4000220000000000002000F00DF8002801D0FFF7C4FFAFF300800020AFF30080FFF740
:201D6000A3FF00F002F80120704700F001B800000746384600F002F8FBE7000080B5AFF3E8
:201D80000080024A11001820ABBEFBE7260002000548014603B4684680F30988AFF300809C
:201DA000FFF7B0FFFFF7D0FFA5EDF5FE7047FEE7FEE7FEE7FEE7704770477047FFF726BCEC
:201DC0000148804701480047551A0008911D0008FFF7FEBFFFF7FEBFFFF7FEBFFFF7FEBF6A
:201DE000FFF7FEBFFFF7FEBFFFF7FEBFFFF7FEBFFFF7FEBFFFF7FEBFFFF7FEBFFFF7FEBF4B
:201E0000FFF7FEBFFFF7FEBFFFF7FEBFFFF7FEBFFFF7FEBFFFF7FEBFFFF7FEBFFFF7FEBF2A
:201E2000FFF7FEBFFFF7FEBFFFF7FEBFFFF7FEBFFFF7FEBFFFF7FEBFFFF7FEBFFFF7FEBF0A
:201E4000FFF7FEBFFFF7FEBFFFF7FEBFFFF7FEBFFFF7FEBFFFF7FEBFFFF7FEBFFFF7FEBFEA
:201E6000FFF7FEBFFFF7FEBFFFF7FEBFFFF7FEBFFFF7FEBFFFF7FEBFFFF7FEBFFFF7FEBFCA
:201E8000FFF7FEBFFFF7FEBFFFF7FEBFFFF7FEBFFFF7FEBFFFF7FEBFFFF7FEBFFFF7FEBFAA
:201EA000FFF7FEBFFFF7FEBFFFF7FEBFFFF7FEBFFFF7FEBFFFF7FEBF03000E2707EC0000C5
:201EC00001FC00028000089C00FFFFFFFFFFFFFFFFFFFFFFFFFFFFFFFFFFFFFFFFFFFFFFF6
:201EE000FFFFFFFFFFFFFFFFFFFFFFFFFFFFFFFFFFFFFFFFFFFFFFFFFFFFFFFFFFFFFFFF02
:201F0000FFFFFFFFFFFFFFFFFFFFFFFFFFFFFFFFFFFFFFFFFFFFFFFFFFFFFFFFFFFFFFFFE1
:201F2000FFFFFFFFFFFFFFFFFFFFFFFFFFFFFFFFFFFFFFFFFFFFFFFFFFFFFFFFFFFFFFFFC1
:201F4000FFFFFFFFFFFFFFFFFFFFFFFFFFFFFFFFFFFFFFFFFFFFFFFFFFFFFFFFFFFFFFFFA1
:020000040800F2
:020000040800F2
:2080000000500020C1B70008D5B70008D5B70008D5B70008D5B70008D5B70008D5B70008F8
:20802000D5B70008D5B70008D5B70008D5B70008D5B70008D5B70008D5B70008C1DF00088C
:20804000D5B70008D5B70008D5B70008D5B70008D5B70008D5B70008D5B70008D5B7000880
:20806000D5B70008D5B70008D5B70008D5B70008D5B70008D5B70008D5B70008D5B7000860
:20808000D5B70008D5B70008D5B70008D5B70008D5B70008D5B70008D5B70008D5B7000840
:2080A000D5B70008D5B70008D5B70008D5B70008D5B70008D5B70008D5B70008D5B7000820
:2080C000D5B70008D5B70008D5B70008D5B70008D5B7000839DF00084FF0000C0849094AAD
:2080E0008B6810B41A4403F5DB0303F5BA43064C8B60064B012084F808C09A6010BC704730
:208100001C00002000DD6D80000000202800002000207047114B1B88D3B1B3F1010C10B422
:2081200017D000220E4B0F4C1868237802FB03F101320B44034462454350F6D100212378F0
:20814000094A0CFB03FC10BC40F80C10106070477047034B034C1868F0E700BF5E00002097
:2081600068000020640000206000002010B4D0E900348268EFF3108172B6DBB2012B07D0AD
:20818000022B0BD0D2B2227081F3108810BC704792B2228081F3108810BC7047226081F3C7
:2081A000108810BC704700BF704700BF816910B4CB68C46982686340CB6090F8303083F04E
:2081C0000103D9074CBFC168016980F830305B070A4403D4826010BC012070474369D11AA1
:2081E0000029F7DB1A46034B8260436010BC0120704700BF5D83000830B58268EFF3108EB7
:2082000072B61749174C4D682368521B022A49BF49688168023181609A688A1A002A0BDB2E
:208220009C461B689A688A1A002AF9DA0360CCF800008EF3108830BD0B4A934208BF1B6895
:2082400003601060916022604FF0E02300224FF0806006495A619A6148608EF3108830BDA2
:20826000001000E0000000200C00002000ED00E0EFF3108C72B614490B68834202D110E0F7
:2082800083420BD01A461B68002BF9D14B68834204BF0E4B4B608CF310887047036813607B
:2082A000F4E700B50A4BD0F800E08268C3F800E09A600B604B68834204BF044B4B608CF393
:2082C00010885DF804FB00BF000000201C0000200C000020014608B572B6014807F024F8E3
:2082E00040010020032008B5FFF7F4FF70B50E4D296891B90D4E047833680D4803EBC40C74
:2083000084454FEAC4020BD898183060184606F0FDFF084A2860147070BD0920FFF7DAFF9F
:208320001020FFF7D7FF00BF7000002038000020004E00206C000020072008B5FFF7CAFFFD
:2083400008B5054A537A23B1022B1CBF0023537208BD0220FFF7BEFF00000020826A38B5ED
:20836000002A00F0868003469168146800299C6218BF0120D3E9065408BF002027D12404E3
:208380002C61404C256815602260B1FA81FC93F830204FEA5C1C82F01004C4F30014A44552
:2083A00031D01C6A002C2ED09A689D6A40F004001444002D53D193F830505C6105F0100554
:2083C0000543800783F830502AD50A4435E02C612C4C5D6AD4F800C08D42C2F800C022604E
:2083E000D3D91C6A002C34D19C6A93F83020002C45D102F0100242F0030283F830209A68EF
:208400005C610A441DE09C6A6CB10025646840F0040002F0100202435C6183F8302055B92D
:2084200001209C6038BD02F01002024383F8302020465C6138BD9A680A44101B0028EFDA92
:208440005D6A11486D1A5860C3E9022101201D6138BD9A689D6A07201444002DABD06A6858
:20846000A41A002C08DB144600F0020593F83020CDE71420FFF72EFF1220FFF72BFF032083
:208480000225C3E760000020AD8100080FB42DE9F04FDFF8389285B099F800300E9EDBB26D
:2084A00023B105B0BDE8F04F04B070470122884D89F800202A780FAC0394D2B285490F787E
:2084C000FFB2BA4203D30B701F461A462B70B178C81960280B4640F2EE80821A602A07D9B5
:2084E000002389F8003005B0BDE8F04F04B070474FF00008DFF8DCA18AF800802978C9B2EB
:20850000754B7F1A3A4618461944019306F0E4FE85F80080FBB242F2AC028AF800306F4B63
:20852000DA60B1780B46019A052902EB07086FD93288053908F102037F2A03EB0105F1787E
:20854000766806D9D30963F07F0388F8023008F1030302F07F0203F8012B002954D09D4236
:20856000C0F0B18006EB010B32E0224652F8041B01F120007F2822D901F58050B0F5804F4C
:2085800018D301F50020B0F5001F0ED301F18060B0F1805F04D3080F60F07F0003F8010B1F
:2085A000480D60F07F0003F8010B880B60F07F0003F8010BC80960F07F0003F8010B144626
:2085C00001F07F0103F8011B5E451DD09D427AD316F8012B052A50D0C7D9063A012A72D879
:2085E000204650F8082BA5EB030A924528BF924603F801AB616852460446184606F05EFE65
:2086000003465E455344E1D1A3EB08030333D9B2019ADD1ED155324A127888F801204FD049
:2086200040464FF6FF7608EB050410F8012B724082EA0212D2B2360A46EA022CD60086EA30
:20864000121282EA0C02A042164612B2EDD1360AD2B2434408F8056003F8022C7E223944C6
:20866000C9B203F8012C42F2AC021C4B19480170DA60002389F8003035E7224652F8040B51
:2086800003F1010C017871B1654502D816E065450DD00CF8011B10F8011F0029F7D1ACEB6D
:2086A00003010139C9B21970144663468CE7E91A0139C9B2F7E7084A019234E70021F2E772
:2086C000FF221646C5E70520FFF704FE580000201D0200201C020020BC0100200038014009
:2086E0001800002010B5094B094A5B7A1488003B084A82B018BF0123211E126818BF0121F9
:2087000005480094FFF7C2FE02B010BD000000205E0000204400002034F40008024B034879
:208720005968FFF7B3BE00BF001000E02CF40008054A064B064952681B680968054893427B
:2087400088BF0131FFF7A2BE001000E09C010020A001002024F400082DE9F047254D264E89
:208760002F683268081A01370244B0F5803F0C462F60326019D200FB00F0DFF88080FF3075
:20878000D8F8001001EB10238B4238BF4FF0FF33DFF86C901B49D9F800A0C8F80030A1EB81
:2087A0000A01E1420ED5BDE8F087B0F5801F1CD2DFF8488000F1FF03D8F800101B0A00FBC8
:2087C0000313E1E739461048FFF760FEA24503D90E4A1368013313600023C9F80040C8F86F
:2087E000003033602B60BDE8F0874FF0FF33DFF80C80CDE748000020A4010020A801002091
:208800009C01002000D68AEA1CF40008A00100202DE9804889B0A94BA9495C6891F90830F5
:2088200002AF002B00F02C82A44B5A6872B691F90830002B40F0008562B6A04B5B689B1AC8
:2088400023447B6001239E4A13729E4B1B78DBB2CBB10023FF249C4EDFF870B2994A31780B
:20886000DBF800C09A4D13700134E3B20CEBC30306E0184653F8082BAA4200F038830134E6
:20888000E4B28C42F5D3934B1B78DBB2FBB1FF21002388468C4EDFF834B28E4A3078DBF807
:2088A00000E08D4C8D4D137008F101085FFA88F30EEBC30307E0194653F8082BA24200F075
:2088C000368308F101085FFA88F88045F3D3844B1B78DBB2FBB1FF21002388467A4EDFF82E
:2088E000ECB17F4A3078DBF800E07E4C7E4D137008F101085FFA88F30EEBC30307E01946C4
:2089000053F8082BA24200F02A8308F101085FFA88F88045F3D3754B1B78DBB2DBB1002363
:20892000FF24694EDFF8A4B1704A3178DBF800C06F4DDFF8C08113700134E3B20CEBC3035D
:2089400006E0184653F8082BAA4200F040830134E4B28C42F5D3684B1B78DBB2DBB10023D3
:20896000FF24594EDFF864B1634A3178DBF800C0624DDFF88C8113700134E3B20CEBC303BB
:2089800006E0184653F8082BAA4200F003830134E4B28C42F5D35B4B1B78DBB2DBB14A4E68
:2089A0004FF00002FF24B146DFF820B1554B3178DBF80000544D1A700134E3B200EBC303F2
:2089C00006E01E4653F8082BAA4200F019830134E4B28C42F5D34D4B1B78DBB2D3B1002397
:2089E000FF244A4A384EDFF8E4B0494D137096F800C0DBF800E00134E3B20EEBC30306E046
:208A0000194653F8082BAA4200F03C810134E4B26445F5D33F4B1B78DBB2D3B10023FF2430
:208A20003C4A294EDFF8A4B03B4D137096F800C0DBF800E00134E3B20EEBC30306E0194634
:208A400053F8082BAA4200F029810134E4B26445F5D3324B1B78DBB2D3B10023FF242F4AF6
:208A6000194EDFF868B02E4D137096F800C0DBF800E00134E3B20EEBC30306E0194653F888
:208A8000082BAA4200F016810134E4B26445F5D3244B1B78DBB2002B52D00023FF240A4E7A
:208AA000DFF828B01F4A3178DBF800C01E4D13700134E3B20CEBC3033FE000BF001000E01F
:208AC00000000020200200206C00002070000020CDA700083C000020B5A800086CF3000874
:208AE00040000020FD9F000884F30008B801002059A700088CF300084C000020B9D300088B
:208B00009CF30008B00100203DBA00083400002099BA00085C000020E5BA00082C020020CE
:208B20009DD500082802002005D60008184653F8082BAA4200F0CA800134E4B28C42F5D32B
:208B4000924B1B78DBB2D3B1914E0023FF24B146DFF840B28D4A3178DBF800008E4D1370FE
:208B60000134E3B200EBC30306E01E4653F8082BAA4200F02B810134E4B2A142F5D84AF66F
:208B8000AA22864B1A60864B5A6872B6854B1B689B1A002BC0F2408362B6834B1A78D2B25F
:208BA0001546002A60D0814B1C78E0071CD4042A5AD97F4E3078431F3B2BB8600DD8717845
:208BC00021F00F03102B08D182424DD33346034413F8016C7E2E00F058837E2800F046836C
:208BE000724B44F001041C707E21714806F048FB30B16F4A04F0FE04831A6C4A5D1C147082
:208C0000A30706D4694B44F002041C706948FFF73DFC202D40F035832A466749644806F07F
:208C20003DFB4FF0FF34BD60002800F0248300208046D7F808905C4B1D78EDB2B5EB0906D7
:208C400040F0ED82EFF3108272B6574B1B78DBB29D4240F0FE82544B1E7082F31088012C21
:208C600002D15448FFF712FC4D4B78685C682146FFF772FD514991F90830002B7FF4D4ADFE
:208C80007C60DFE5486800283FF4C4AE037DDB077FF5B1AE214603F09BFAA8E6486800282D
:208CA0003FF4D7AE037DD9077FF5C4AE214603F02DFBBBE6486800283FF4EAAE437B002B07
:208CC0003FF4D7AE214603F095FBCEE6D0F80480B8F1000F3FF434AF98F83030DA077FF5DF
:208CE000E7AE72B698F8303023F0010388F8303062B6D8F810309A68D8F814301A4202D163
:208D0000404603F009FC98F8709019F0040F39D0D8F8360006F050F8294906F0A5F8294965
:208D200006F056F9D8F8781005F094FF1C4B19F0020F5B6820F0004A40F06782D8F8741003
:208D400050463B6009F0FD09B96006F049FAB8B1B96808461C4906F087F80146504606F00C
:208D600021FA68B198F880203B68002A00F07482D8F884209B1A002B02DB002388F8803058
:208D800088F830903178DBF800C091E6240200206C0000207000002081D6000800300040AF
:208DA000001000E0B40100203C010020AC0100207C0000203C06010838F30008000000208A
:208DC00066669E40FFFF7F4B000020417668002E3FF4D5AE96F83430DB077FF5C1AE72B61F
:208DE00096F83430304623F0010386F8343004F095FFBD4B186062B61968BC4A002940F012
:208E0000BE811378012B00F0C481B94B1B68042296F8708086F835201A0C86F8382018F025
:208E2000040F4FEA1362F38686F839205AD01A0240F1C9815B4223F07F4323F01F0358421F
:208E400005F038FCA2A3D3E9002305F09DFCA94B4FF0404205F0C2FD05F0A8FEA64906F04E
:208E600003F896F869308246002B00F0A881184605F020FC98A3D3E9002305F085FC02467D
:208E80000B465046C7E9022305F026FC94A3D3E9002305F079FC0B460246D7E9020105F02E
:208EA000BDFA05F083FE824606F0CAF9C3B2504686F86930D6F8841005F0CCFE8F4B18F0DF
:208EC000020FD3F804A020F0004040F08781D6F8801006F085F9002840F08D8108F0FD0855
:208EE00086F8708099F80010DBF8000038E6406800283FF4C8AC90F820305B077FF5B4ACED
:208F00007E4B596872B690F8202090F8213022F0040C80F820C062B67948009102F0010225
:208F20002146FFF7B3FA3178DBF800C09CE44A68002A3FF4CCAC92F82A1092F82B30994260
:208F40007FF4B2AC72B692F82A1092F82B308B4200F0268162B63078DBF800E0A4E449685F
:208F600000293FF4D8AC0B7FFF2B7FF4C1AC72B68B7C002B00F02C814A7F0A7762B6CA7EDC
:208F80001331284600914146FFF780FA3078DBF800E0ADE4406800283FF4FDAC90F8203027
:208FA000DB077FF5E9AC72B690F82030826823F0010380F82030D0E9063162B600914046DE
:208FC0002146FFF763FA3178DBF800C0D4E44368002B3FF4C0AC1A7F12077FF5ADAC72B6C7
:208FE0001A7F22F008021A7762B69A7F214640462833D208FFF74AFA3178DBF800C09BE4E3
:209000007668002E3FF4E7ACF37FDA077FF5D4AC72B6F37FD6F808A023F00103F37762B68E
:20902000B37F032B17D8DFE803F06D851B024FF00003BB8202220121B06907F1140302F039
:20904000C3F9BA8A514652BA02F006033046009492B203F091F899F80010DBF80000ABE4A5
:209060004FF00108C7F8148041460322B06907F1140302F0A9F907224FF000004146D7F82F
:2090800014803A75787598FA88F84FEA182C0222B06907F11403C7F808C002F095F9D7F8EF
:2090A00008C07B7D0CF0010CC8F30F2823F00303514630464246009443EA0C0303F05CF830
:2090C00099F80010DBF8000076E400BFAFF30080CDCCCCCCCCCC933F989999999999B93FB9
:2090E000CDCCCCCCCCCCEC3F540000207400002050000020FFFF5F4100007A44001000E0B8
:2091000064F3000800237B6104220121B06907F1140302F059F97B6951461BBA30461A4617
:20912000009403F0070303F027F899F80010DBF8000041E40C237B6104220121B06907F18F
:20914000140302F041F90F224FF0000079693A7578750222B06907F1140391FA81F801216C
:2091600002F032F9514630467B7D28F07F42009403F002F899F80010DBF800001CE4137874
:209180009F4840F823100133DBB2012B13707FF43CAE002313709A4B9A4A1B68136036E62F
:2091A000013382F82A30138B526962B628464146FFF76CF93078DBF800E0FFF775BB06F06F
:2091C0003FF8C3B273E623F0704020F01F0037E662B63078DBF800E0FFF78ABB736FAAEB56
:2091E0000303002BFFF67EAED6F8801005F0F8FF00283FF473AE96F87110F06EC6F874A018
:2092000002F034F84FF000086AE6D8F87C209A1A002ABFF693ADB5E57B4B1A60BCE47B4B1A
:2092200000EB09011944321A184406F055F8784B304683F8088005E5FF2375490B7262B656
:2092400030BF72B6724B93F90830002BF7D1FFF7F3BA82F31088EEE498F87110D8F86C00B4
:20926000C8F87C30914602F001F889E501234FF0FF34BB60DBE460A1D1E9000103F010FB28
:20928000D5E44FF0FF34BD60D1E44FF6FF76DFF87CE1A0F1030813F802CC1EF80830F044EC
:2092A0004CEA032C0FFA8CFC1EF8013B734083EA0313DBB2360A46EA0329DE0086EA131393
:2092C00083EA0903F0451E461BB2EDD19C457FF484AC504B504A24F002041C7013788B423A
:2092E00040F084804B1C03F00F0343F0100313704A4B984565D9494CDFF8249194F9003077
:209300006E46002B94F800E05DDB01340EF1FF33572B6DD809EB0E129378D2F808C09B0051
:20932000073303F4FF63ADEB030D13794FEA0E1E0DF1080A581EA3B3A04554D31CF8013BC9
:209340005546042B1FD814F8013B05F1040B03F06001602903F07F0208D162F01F0205E07D
:2093600014F8013B03F07F0141EAC2121906F7D42A60B0B1A04536D31CF8013B5D46042B4E
:2093800000F1FF30DFD9072B2DD1234613F8012B9C18A04527D3AB464BF8082B6B60002838
:2093A000EAD11B4B5B7A23B109EB0E03DB78DA0712D5CE445046DEF80C309847B546A0454A
:2093C0009CD8012433E463784FEACE1E0EF47E5E43EA0E0E023499E70D4B1248997AFFF745
:2093E00055F8B546EBE70620FEF774FF05460DE40420FEF76FFF00BF9B58A16CFAE3845989
:209400007800002050000020B40100207C00002000000020AC010020180000207E00002010
:20942000C8FF00080CF40008002445F2555640F6FF754CF6CC402DE98848A64BA64A23F07D
:2094400003031360A54AA64B1660546095601060D3F8FC20A34942F08072C3F8FC200A68E4
:2094600042F001020A604C60EFF3108172B64FF0E022202607254FF0806083F823601561C0
:2094800054619461586081F31088974D284603F0E1F8482142F22C02944BA960EA6083F8C8
:2094A00025435E6072211720012203F02DFA22467221162003F028FA8D48FEF7E7FF72B661
:2094C0008C4805F02BFF10B962B6FFF7A1F972B6894B84495A7AD1F804B0002A00F0AC81C7
:2094E00002224FF0E0204FF000084FF080648249824B4A72824A4B600A6099681360916005
:20950000804A1A60764BC0F81480C0F818805C607D4BFF2683F80080FEF7FCFD4FF0110EBA
:209520007A4A7B4B10781D687A4C721CD2B2334605EBC20204E0174652F8081BA14215D019
:209540000133DBB28342F6D3474697B1D7E9061297F8303013F0100315BF734612040A61FC
:209560000A6187F83030C7F82880DEE71E467F68EBE7FF24654E684D654B3178D3F800A009
:20958000631CDBB20AEBC30304E0184653F8082BAA4230D00134E4B28C42F6D34FF0FF09AF
:2095A0005A4E5E4C09F10102D2B24B4630780AEBC20204E0944652F8081BA14225D00133AF
:2095C000DBB28342F6D33D461DB32846FEF750FE05F10C00FEF74CFEEB6933B100211A4672
:2095E0001B68C2E90011002BF9D10023EB612B8485F82230D6E74368002BCFD0002103F103
:209600003C00596300F088FEB6E79946DCF80450DAE7FF24DFF8F490414F6FF0100C3C486A
:209620000668631CDBB299F8001006EBC30304E09E4653F8082BBA4224D00134E4B28C4289
:20964000F6D34FF0FF0CA84636480CF10102D2B2634606EBC20204E0174652F8084B844205
:2096600034D00133DBB29942F6D84446002C5BD0237CDD07E9D5D4E902721C0748BF1204E9
:209680003A61E2E7DEF80430002BDAD0D3E9082EEFF3108172B61668F60605D5566BB645EA
:2096A00004BFC2F800C0D26C81F3108893F82B20002AB5D00132D96883F82A205A69184644
:2096C0000A445A619A60FEF797FDA6E79C467C68CCE700BF3B020020380000200030004014
:2096E00000ED00E0001000E00038014000E100E004F4000840010020000000201C000020B6
:209700000C00002028000020580000206C00002070000020199A000829A00008CDA7000839
:20972000B5A80008819E0008FF26DFF81081444F444B98F800001968731CDBB201EBC3030F
:2097400004E09C4653F8082BBA4224D00136F6B28642F6D3FF264FF0000CA646374F3A4801
:209760003A4C721CD2B2334697F8009001EBC20204E0924652F8085B854217D00133DBB231
:209780004B45F6D37246AAB1938AD5682B605460C2F818C0E5E7DCF80430002BDAD01A79F6
:2097A00018680021053301F00FFEC1E71E46DAF80420E8E7FF24214F254E224B621C1B688D
:2097C000D2B2397803EBC20304E0184653F8082BB2421BD00134E4B28C42F6D3EFF3038338
:2097E000C3F3080343B14FF080736FF0060208B401A102B41FB510470122164B5A7262B674
:20980000154859469A7AFEF741FE5DE64568002DE4D02B7F9B060BD5D5E90301012203F030
:209820009BF92B7F03F0300343F001032B77C4E7D5E903321A61F4E7987251E66C0000202A
:20984000B9AB00087000002055AE00089D9F000859A700080000002014F4000840F66A33B2
:20986000D0E9001299420DD840F66B33D2B25018984202D9C1F16B02D2B2054B05480B4459
:20988000FEF704BE024B002202480B44FEF7FEBD5CF400085CF30008D0E90031EFF310824C
:2098A00072B6DBB2012B08D0022B0DD00978C9B282F310880748FEF7E9BD098889B282F3B1
:2098C00010880448FEF7E2BD096882F310880148FEF7DCBD44F40008034602485A68197895
:2098E000FEF7D4BD3CF4000838B50A4D0A4B2C68211899420BD8C31C23F0030302462344DF
:20990000002120462B6005F001FD204638BD1020FEF7E0FC38000020004E002038B50D4BDB
:2099200093F800C00346844510D910460A4A126852F8334002EBC30544B9084C24882CB969
:2099400042F83310FFF7D0FF686038BD0A20FEF7C1FC00BF6C000020700000205E000020D3
:2099600030B5044683B06D46D4E90112003A18BF0122284603F094FC0C2205492078FFF7D3
:20998000CDFF034695E8030083E8030003B030BD619900080E2008B5FEF79CFC0D2008B5C0
:2099A000FEF798FCF8B5164F3E8836BB154B05461978002203299CBF04211970124B134C06
:2099C000186803469C460B44A3420FD80132B2F5803FF7D1181AFFF787FF0D4B3E80186024
:2099E000FEF798FB0B4B2A681A60F8BD12B1634696B2EFE70F20FEF76DFC0C20FEF76AFC2A
:209A00005E0000206400002038000020004E0020680000204400002030B5044683B06D467D
:209A2000D4E90112003A18BF0122284603F038FC342213492078FFF771FF034695E8030014
:209A400003F1180282E80300D4E90221003A18BF012209B142F0100200210A4D83F8302036
:209A600020692A88C3E90A1118623AB9064B1A780B2A9CBF0C221A7003B030BDFFF78EFF29
:209A8000199A00085E000020640000200B2008B5FEF720FC10B50D4B02781B78934212D926
:209AA0000B4B0C491B6853F8324003EBC2038C4209D15B688268D3E900130AB10B6110BDF0
:209AC0001B040B6110BDFFF7E1FF00BF6C000020700000206199000810B50D4B02781B7851
:209AE000934210D90B4B0C491B6853F8324003EBC2038C4207D15B6872B69A6A2AB94268E8
:209B00005A6262B610BDFFF7C1FF1320FEF7E2FB6C00002070000020199A000810B5284BDA
:209B200001781B788B4247D9264B02461B68264853F8314003EBC10384423DD15868EFF39E
:209B4000108472B621490B68002B37D0D3F800C0C1F800C084F3108854685C6092689A60BB
:209B600072B60021826A196022B1C26A1360C36262B610BD90F83020C0E90A33510714D4BD
:209B800042F0040380F830309307446108D4FEF76FFB0F4BC0E90134FEF72EFB62B610BDFF
:209BA00083681B1B002BF9DBF1E743691B1B002BE6DA1220FEF78EFBFFF768FFFFF7EAFEF5
:209BC0006C00002070000020199A0008600000205D83000838B5244B02781B7893423ED9F1
:209BE000224B04461B68224953F8320003EBC203884234D15868FEF73BFB836A8BBBD0E9EA
:209C00000651227990F83030002AB2FA82F208BF0904296183F01001C1F300114FEA5212DC
:209C200014BF012400248A4201D0026A2AB903F01003234380F8303038BD0E4903F0100386
:209C4000496823430A4443F004030B4980F83030C0E90112BDE838404261FEF7CDBAFFF74B
:209C600015FF1120FEF736FB6C00002070000020199A0008001000E05D8300080021094A56
:209C80000346117290F8202042F0040280F8202001209A68D3F818C0034962449A60087016
:209CA000704700BF000000202002002070B4867F84469EB1701E634600260122C1B20CF19A
:209CC000080000EBC100D3E908148D680833254218BF164351009842CAB2F4D19CF8102001
:209CE000B24208D09CF8113082EA06017340DB43DBB20B4215D19CF91C209CF81C30002AE4
:209D00008CF8116005DB013BDBB2FF2B24D08CF81C30DCE902321344012070BCCCF808301E
:209D2000704722EA0302334013439CF812208CF81030072ADFD80020511C8CF812100A499A
:209D40006244D37408720121FF23084A8CF8116011708CF81C30DCE70021034A11720121EA
:209D6000024A1170D3E700BF000000204000002030B5D0E90321D368456A4B40D360437FF1
:209D800090F81CE0C47F0133DBB28EF0010EA34280F81CE02CD200EBD30292F8282003F0D2
:209DA00007010A410EF0010E02F001029645294608D017E092F8282042FA0CF202F0010234
:209DC00096450FD10133DBB2A34200EBD30203F0070C2944EED38368064A0B44C0E90123D7
:209DE000012030BD826843770A448260012030BD2946F0E7C9AF0008C26810B4D368046917
:209E000017496340D360437F027F0133DBB282F00102012B4968027743771DD0042B06D889
:209E20008268036A10BC13448360012070478368426A10BC1A44891A11F1020C026A48BF06
:209E400001F1050C194402EBAC03064A1944C0E901214362012070478268891A4162E0E71A
:209E6000001000E0719D0008034600B5D3E9001283B0684603F014FA03B05DF804FB00BF68
:209E8000F0B5054683B014220E490078FFF746FDD5E901176E46B7FA87F204465209304692
:209EA00003F0FEF996E80300002F14BF0925012504F1080282E8030094F910302B432374A3
:209EC00003B0F0BD819E000808B5D0E908311A6812F0100F0AD0920702D55A6B8A4209D0F5
:209EE000836803F5B4638360012008BD264A59639A60F5E76FF010021A6090F82A2090F858
:209F00002B10DB6C8A429BB21CD301228A42038380F82A2021D3428B9A4224D8828B9A42FE
:209F200021D31A4B002280F8282000221A7201214369D0F80CC0164A6344117043618360C7
:209F4000012008BDB0F818C00132D2B263449BB28A42038380F82A20DDD283680269134480
:209F60008360012008BD90F8283090F829200133DBB29A4280F82830044BD6D85A7A002AFF
:209F8000D0D11920FEF7A6F90100DE00000000203C0000201D2008B5FEF79CF938B503463E
:209FA0008269144C116825688161C068118901601560986922609A8A58B98A4201D0186900
:209FC00000B938BD9A680C49104498605960012038BD8A42446801D01A6912B901209C60AD
:209FE00038BD99680A44121B002AF7DA1C20FEF771F900BF60000020959F000810B504799D
:020000040800F2
:20A00000082C09D8221D06490078D200FFF786FC044B8477436010BD2020FEF75BF900BFD9
:20A02000FD9F0008AD9C0008F0B50546482283B022490078FFF772FCEF686E46002FD4BF8A
:20A0400000220422044680F844206968304603F027F996E8030004F1200383E8030000220F
:20A060003046A96803F01CF996E803004FF0404C002204F1280383E80300114BC4F830C04D
:20A0800019882B69A263E3616263A1B90D4A11780F299CBF102111704BB9002F07DA94F85E
:20A0A000443043F0100384F8443003B0F0BD064B636003B0F0BDFFF771FC00BF29A000082F
:20A0C0005E000020640000201DB1000810B5104B02781B78934218D90E4B0F491B6853F836
:20A0E000324003EBC2038C420FD142685968002A14BF0223002372B691F8442022F00202B2
:20A10000134381F8443062B610BDFFF7BFFC00BF6C0000207000002029A0000810B5114B99
:20A1200002781B78934217D90F4B10491B6853F8324003EBC2038C420ED15B68416872B666
:20A140005A695AB993F84420996022F00802996183F8442062B610BDFFF798FC1520FEF7B3
:20A16000B9F800BF6C0000207000002029A0000810B5184B027893F800C0624524D2164B97
:20A180001B6853F8321003EBC20E144A91421BD10179DEF80420614516D253F831401048BE
:20A1A00003EBC10384420FD15B6802F13C00EFF3108172B6146C4CB90A4C1464DC69D463EB
:20A1C000D86181F3108810BDFFF760FC1820FEF781F800BF6C0000207000002029A00008C9
:20A1E000CDA7000819A3000810B5184B02781B78934228D9164B17491B6853F8324003EB25
:20A20000C2038C421FD15C680379E27E1A44E27672B6A27C9A4210D9D21AD0B2123304F1B2
:20A220001302234402EB000C13F8011F02F8011B6245F9D1A07462B610BD0022FE23A274A5
:20A24000237762B610BDFFF721FC00BF6C00002070000020FD9F000808B5134B01781B78C6
:20A260008B421ED9114B124A1B6853F8310003EBC103904215D15B6872B693F844001A6BBA
:20A280005B69C0064CBFD21AA2EB5302002AB8BF524262B6074802F14042BDE80840FEF768
:20A2A000F5B8FFF7F3FB00BF6C0000207000002029A000084CF4000810B5134B01781B78EA
:20A2C00082B08B421DD9114B114A1B6853F8310003EBC103904214D1586872B690F82420B6
:20A2E000C36962B6D0E90340A468C2F34002044214BF0124002407480094FEF7C7F802B070
:20A3000010BDFFF7C3FB00BF6C00002070000020C5A6000854F4000838B504463C38FDF77F
:20A32000A7FF00210025237A54F80C2C44F8341C44F8241C54F8281CD8064CBF521AA2EB96
:20A340005102002A03F01403C8BF524243F0080344F80C2C54E90501DA064FEA0141237276
:20A3600044F8285C016111D554F8083C6BB10B48016800E013461A6844F8082C1960036066
:20A3800054F8082C1946002AF4D138BD5B0754E9071258BF12040A61E6E700BF600000209E
:20A3A000F8B5224F02783B7893423CD9204E05463368204953F8320003EBC203884232D1AE
:20A3C0005C682046FDF754FF6B68A360AB68A3612B7B84F8253013B3296984F82630164B1D
:20A3E000616163606B693A78002B14BF0323022384F824302B7E9A4215D9326802EBC3017B
:20A4000052F833200D4B9A420DD1EB694A6884F8273020462262BDE8F840FDF7EDBE84F8D2
:20A4200024302362F8BDFFF731FB00BF6C00002070000020C5A6000819B30008CDA70008CE
:20A4400038B51D4B02781B78934233D91B4B05461B681B4953F8320003EBC203884229D12D
:20A460005C6872B62046FDF703FF04F10C00FDF7FFFEE36933B100211A461B68C2E90011B2
:20A48000002BF9D10023012284F8223022846A68E361A260AB68A36123B9EB6884F82230E1
:20A4A00062B638BD2046FDF7A7FEEB6884F8223062B638BDFFF7EAFA6C000020700000206C
:20A4C000CDA7000870B5124B02781B7893421DD9104B04461B68104953F8320003EBC203F5
:20A4E000884213D15D6872B695F82030DB0701D462B670BD05F10C063046FDF7B9FE6368F4
:20A5000030466B61FDF778FE62B670BDFFF7BEFA6C00002070000020CDA7000838B5214BAB
:20A5200002781B7893423AD91F4B05461B681F4953F8320003EBC203884230D15C68204661
:20A54000FDF796FED4E90830EFF3108272B61968C90617D482F310886B686361A360AB68ED
:20A5600023612B7B5A1C84F82B3084F82A202A69E260EA69D5E9050184F829206083A183E6
:20A5800043B938BD596B8842E4D16FF010011960DB6CDFE72046BDE83840FDF72DBEFFF739
:20A5A00075FA00BF6C00002070000020B5A8000838B5234B02781B7893423CD9214B2249C3
:20A5C0001B6853F8324003EBC2038C4233D15D68EFF3108272B61D4B1C68002C2DD02168B7
:20A5E000196082F31088436863608368238172B60022AB69226023B1EB691C60EC6162B6EF
:20A6000038BDC5E9064462B62846FDF731FE104B6A689A42636807D00E4A2846C5E9012361
:20A62000BDE83840FDF7E8BDAA68D21A002AF3DA1C20FDF74FFEFFF729FAFFF7ABF900BF80
:20A640006C0000207000002055AE000860000020959F00089D9F000838B5174B02781B7877
:20A66000934224D9154B05461B68154953F8320003EBC20388421AD15C682046FDF7F8FD84
:20A680000023FE206A68A260A968E1602A7CA37462742274E3762077EB6863771B0608D410
:20A6A00001B938BD2046BDE83840FDF7A5BDFFF7EDF91E20FDF70EFE6C00002070000020DC
:20A6C000FD9F000830B5282283B0044609490078FFF724F96D46034661682846A2681C46AE
:20A6E00002F032FE95E8030004F10C0383E8030003B030BDC5A6000870B5144B01781A78A4
:20A7000082B08A421DD9124A03461268114852F8314002EBC102844213D154681A79A17F49
:20A72000914210D96E46151D3046D3E9021202F00BFE96E8030004EBC50484E8030002B0DC
:20A7400070BDFFF7A3F91F20FDF7C4FD6C00002070000020FD9F00082DE9F043342283B0B4
:20A76000044619490078FFF7D9F86E46054694F80890D4F80480B9F1000218BF0122E76886
:20A780004146304602F0E0FD96E8030005F1140383E8030001223946304602F081FD96E8EB
:20A7A000030005F10C03B9F1000F83E803000CBF012311232269B84508BF43F020032A6216
:20A7C0002B7703B0BDE8F08359A7000838B50F4B1A7803789A4216D90D4CDD00226852F8DB
:20A7E000331081B90B49098869B90B49242042F83310FFF779F823680849094A2B44586003
:20A800004160026138BD0A20FDF764FD6C000020700000205E000020CDA700087D9C000889
:20A8200051B3000838B50D4B1A7803789A4212D90B4CDD00226852F8331061B909490988AB
:20A8400049B90949142042F83310FFF74DF823682B44586038BD0A20FDF73CFD6C0000202E
:20A86000700000205E000020819E000838B50D4B1A7803789A4212D90B4CDD00226852F882
:20A88000331061B90949098849B90949102042F83310FFF729F823682B44586038BD0A208F
:20A8A000FDF718FD6C000020700000205E0000206DA80008002370B5314A05461C464068C0
:20A8C00004E00134112C1CD012F8013F9842F8D12C4A936913F4007316D0FE2803D000225C
:20A8E000032102F011F82C2227492878FFF716F801232649264A80F82A30C0E9082441608C
:20A9000070BD2B20FDF7E6FCEFF3108C72B64FF400769169314391619169D660D3608CF348
:20A9200010880121A2F56C421A4B9160D3F8FC20D60109D4D3F8FC2042F08072C3F8FC2045
:20A94000154A13680B43136013494A6802F534724B689B1A002BFBDB09230D498B608B68E8
:20A960001A07FCD405230A4A8B6093685B07FCD40A4BD36003F110531361094B9360ACE725
:20A980004406010800100240B5A80008C99E00080024014000ED00E0001000E0244992001D
:20A9A00001009E002DE9F84F3E4B02781B78934273D93D4B3D491B6853F8324003EBC203E3
:20A9C0008C426AD1047A5D68032C63D82B7C13F0060F5FD1D0F80480C768B8F1040F5ED865
:20A9E000DFF8CCA008EB48035AF823600AEB8309304601F023FF4FEA480BA8B100232D487A
:20AA00001946013320FA03F2974228D2082BF7D138212B7C214343F0040341F451712B7492
:20AA2000C5E90061BDE8F88F304601F013FE99F80400FF2821D10BEB08030AEB8303587968
:20AA4000FF280ED1D8440AEB880898F80600FF28D4D0002298F8091001F056FFCEE7C9005F
:20AA6000D7E7D8440022197A0AEB880801F04CFF98F80600FF28C1D0EBE7012299F807109B
:20AA800001F042FF0BEB08030AEB83035879FF28D8D0E6E71A20FDF71DFCFEF7F7FF2F201A
:20AAA000FDF718FC6C00002070000020819E00088C060108005125022DE9F8433A4B077BE0
:20AAC0001A7803789A4269D9384A126802EBC30152F83320364B9A4260D1D0F804804D6872
:20AAE000B8F1020F5CD8DFF8CC9059F83840204601F0A4FE064640B12B7B7F0043F00203D9
:20AB00002F712B732C60BDE8F883204609EBC80801F0A0FD98F8049098F80580012240F205
:20AB20000111484601F0F0FE012240F20111404601F0EAFE4FF0FF3240F20111404601F0A5
:20AB4000E3FE4FF0FF3240F20111484601F0DCFE012240F20111484601F0D6FE012240F2F8
:20AB60000111404601F0D0FE484601224FF4A17101F0CAFE404601224FF4A17101F0C4FE0E
:20AB80004FF4004C2420B42125220123C4F800C026606060E16122622360ADE7FEF776FF99
:20ABA0002E20FDF797FB00BF6C000020700000206DA800087406010870B5114B02791B78B7
:20ABC00093421AD90F4B04461B680F4953F8320003EBC203884210D1257A0C4905F108025F
:20ABE00020785E68FEF79AFE0571E1682A4606600530BDE8704004F061BBFEF747FF00BF41
:20AC00006C00002070000020819E0008B9AB00082DE9F0411D4B02781B78934234D91C4B80
:20AC20001C491B6853F8324003EBC2038C422BD15C6890F80480237B8568DB071CD5A768B5
:20AC400008F1FF36384697F8201002F0D9F8F6B2B8F1000F0BD06C1C264400E001342B4613
:20AC60003846197801F0A8FFA6422546F6D13846BDE8F04102F056B92B46424621792068A3
:20AC8000BDE8F04103F090BBFEF700FF6C000020700000206DA800082DE9F04182B01C4B93
:20ACA00004781B7802AFA34230D91A4B1A4A1B6853F8341003EBC403914227D15E68057B45
:20ACC00096F80CC0EB1D03F4FC73ADEB030D1CF0010F017983680DF108080FD10A463068AD
:20ACE0003179CDE9005803F003FB43462A4621460A48FDF7CBFBBD46BDE8F0811A46B068AE
:20AD00002B46CDF8008002F081F9EEE7FEF7BEFE6C000020700000206DA800087CF30008DB
:20AD20002DE9F04F85B0484B02781B7802AF934240F28580454B46491B6853F8324003EBDF
:20AD4000C2038C427BD1C668D3F804B0F2070579836876D4C6F3470605EB060A0AF10702B1
:20AD600022F00702ADEB020D9BF80C2002AC1946D0F810907A6020462A463B6004F09EFA06
:20AD80007A68A04612F001037B603B683ED162199BF80410DBF80000019200962A4603F0D7
:20ADA000A7FA002E3ED06A1E911921442244013209EB0203581B001B90F800C010783344B8
:20ADC00020EA0C005B1B10701B1B1B78914240EA03001070EBD17B6823B3DBF808505FFA25
:20ADE0008AF6284695F8201002F00AF83EB1344418F8011B284601F0DFFEA045F8D12846C9
:20AE000002F090F80C37BD46BDE8F08F1A466319DBF8080029460093334602F0F7F8002E0D
:20AE2000C1D1DAE723469BF80410DBF800005FFA8AF203F0B9FA0C37BD46BDE8F08FFEF702
:20AE400025FE1B20FDF746FA6C000020700000206DA8000870B5027B04468168007903F0E6
:20AE600097F9202205460D492078FEF757FDD4E9046400230A4A0B491288C0E90354C0E94B
:20AE800006338682416032B9074B1A780B2A9CBF0C221A7070BDFEF781FD00BF55AE00084F
:20AEA0005E0000209D9F000864000020027A4168007803F06DB900BF38B5044601224169D3
:20AEC000437F8D6800EBD300D4F818C003F0070102FA01F190F8282015EA0C0F1ABF0A4360
:20AEE000D2B28A4380F82820A27F0133DBB29A4206D9A268616A63770A440120A26038BD8F
:20AF0000237F9A060ED4D4E90321116100200A4A03F0300343F00903237710720122074B50
:20AF20001A7038BD04F10C0393E80300012201F013FE237FEAE700BF00000020B8010020C0
:20AF4000D0E905329B6810B5134004460ED0037F43F004030377637F5A1C3F2B62770FD806
:20AF6000A368626A01201344A36010BD027F5107F1D5124A43774260BDE81040FFF79CBF15
:20AF80000022237FA2779A0613D504F10C0393E80300012201F0E0FD237F0020084A03F0D2
:20AFA000300343F00903237710720122054B1A7010BDD4E903211161EFE700BFB9AE0008E2
:20AFC00000000020B801002070B5837F044633B3027F93060AD40022A368656A234903EBD3
:20AFE000850362770120C4E9011370BDD0E905561F4900201F4B02F0100201E051F8043B6E
:20B000009D4227D001300728F8D10020EFF3108572B6002101F078FC85F31088DBE7037F98
:20B020009A060ED4D0E9032111610020124A03F0300343F009032377107201220F4B1A703B
:20B0400070BD00F10C0393E80300012201F084FD237FEAE796FAA6F3002EB3FA83F308BFFC
:20B060004FF0FF3303EB0010D0E700BF41AF00085C0601080008014000000020B801002046
:20B0800010B4446B03461CB920465C6110BC7047B4F90810D4E9000219821144D96093F841
:20B0A00044105863C90619D51A484168986896310244501A32EA200228BF0A4661899A60E9
:20B0C0005961227BD2071CD41A6B0A441A63124B01201A6822601C6010BC70470D49D869E8
:20B0E0004968014498690244501A00289A619A60BCBF9961996061894A005A61227BD207B9
:20B10000E2D51A6B986A891AC2681963DB6A5340C360DCE7001000E060000020026A38B521
:20B12000D368456A16496B40D36043694D68C269013B1544DA070446436102D50120A560FB
:20B1400038BD7BB1C1688369B0F910200B440A44591B00298361C260B8BF8561EEDB012059
:20B16000A36038BDFFF78CFF0028E9D0A3685B1BE6D5044A9342E1DA1720FDF7ABF800BFCE
:20B18000001000E0C0E6FEFF10B5344B02781B7893425BD9324B33491B6853F8324003EB9B
:20B1A000C2038C4252D15C68EFF3108272B62E490B68002B4FD0D3F800C0C1F800C082F3CC
:20B1C000108842685A6002895A81002A40D00022C0681A73188172B694F8442002F0010C4C
:20B1E000C2F34000844505D0187B82F0010240F0010018736069B8B912F0080004D00A686E
:20B200001A600B6062B610BD616B84F844201860A9B1A26B1360A3632046FFF731FF20466E
:20B22000FCF7EAFF62B610BD0020616B84F84420186039B1A26B1360A36362B610BDC4E907
:20B240000D33E9E7C4E90D3362B610BDFEF71EFC1620FDF73FF8FEF79DFB00BF6C000020C4
:20B260007000002029A000086000002090F82030DA071ED570B5044623F00503C06943F05B
:20B2800004030E4684F8211084F8203050B10025D0E900233146E261C0E900559847E069F8
:20B2A0000028F5D10022034B1A720122024B1A7070BD7047000000202002002010B5D0E9E6
:20B2C0000312896890F82440114218BFE44304F0010403466CB990F82620013A12F0FF02B8
:20B2E00011D099689C6983F8262021440120996010BD90F82520C169064C83F8262001202F
:20B30000C3E9014110BD90F82710006AFFF7AEFF204610BD19B3000810B4D0E902329468F2
:20B32000D0E904121A4490F824300C4218BFDB4303F001031BB1826010BC01207047034B2A
:20B3400010BCC2614360FFF7B9BF00BFBDB2000808B503460C38997DFFF788FF002008BDF5
:20B3600030B5154B05781B7883B0AB4222D9134B134A1B6853F8351003EBC503914219D11C
:20B380005C6872B601792046FFF770FF2046FCF76FFF04F10C00FCF76BFF002294F8213058
:20B3A00084F8202062B6074829460092FDF76EF803B030BDFEF76AFB6C00002070000020F9
:20B3C000CDA7000864F300082DE9F04F057C83B015F0060F34D015F0020C1746046832D18C
:20B3E00046682268B24204D022F0400222602268266015F0010940F0AB807A1ED2B26FB1C1
:20B400009F185A1E12F8013F2373A368DB07FCD5237BDBB201B11370BA42F3D1A36803F041
:20B420008203022BFAD1B9F1000F09D0D0E902E605F00808B8F1000F40F0A780CEF8106012
:20B4400003B0BDE8F08F267ED4E904E2B60758BF120415F00109CEF8102079D17A1ED2B279
:20B46000002FEDD09A18019203F1FF3E4FF0080C00231EF8012F2BE0D4E90467EFF3108AFF
:20B4800072B6D6F80C8088EA0707F7608AF3108812F0800FD4E9026708BF3F043761520093
:20B4A000D2B2D4E90468EFF3108A72B6F76888EA0707F7608AF3108826686768B6685B001A
:20B4C0003E42DBB218BF43F00103BCF1010C38D094F8188018F0010FCED1D4E9026712F08C
:20B4E000800F08BF4FEA07484FEA420214BF3761C6F81080D2B2D4E90468EFF3108A72B6E7
:20B50000D6F80CB088EA0B08C6F80C808AF3108826686768B6685B003E42DBB218BF43F0D0
:20B520000103D4E90468EFF3108A72B6D6F80CB088EA0B08C6F80C808AF31088BCF1010C12
:20B54000C6D109B18EF80030019B9E458ED16AE72A07D0E902E658BF320405F008084CBF86
:20B56000CEF81060CEF81020BCF1000F02D14FF0010942E77A1E4FF00109D2B2002F7FF497
:20B5800071AFB8F1000F3FF459AF3604CEF8106056E700BF70B5104B04781B78A34218D9C7
:20B5A0000E4B0F4A196851F8345001EBC40195420FD18668057933462A4648680121FFF706
:20B5C00003FF33462A462146BDE870400548FCF75DBFFEF75BFA00BF6C0000207000002043
:20B5E000819E000874F300080C4B90F800C01B7863450FD90A4B0B4A1B6853F83C1003EB41
:20B60000CC0C914206D1836802790021DCF80400FFF7DABE10B5FEF739FA00BF6C00002083
:20B6200070000020819E00080346D0E9091288689969104214BF4FF0010C4FF0000C01F097
:20B64000010084459A681CBF0131C3E906125969891A002904DBD96801200A449A6070477F
:20B660004FF0000C196993F820000A44064940F0010083F820005A6181F808C00120034980
:20B680009A680870E7E700BF000000204C0000200021084A10B4034611720120D97F9A6899
:20B6A000D3F80CC0044C01436244D97720709A6010BC704700000020B00100200346002002
:20B6C000044A10721A7D42F001021A750122024B1A707047000000203400002003460020B1
:20B6E000044A10721A7D42F001021A750122024B1A707047000000205C000020427B0346CC
:20B70000016942B1428D8900013242859A6801200A449A607047D0E9062092680240F5D177
:20B72000012010B4054C58732272054AC90010709A6801200A4410BC9A60704700000020CE
:20B740002C020020D0E90421926803460A4005D0D3E902210A4401209A60704790F8301094
:20B76000044841F0010183F8301002720121024A1170EDE70000002028020020034672B67D
:20B78000D0E903128868104206D062B69A68D96A01200A449A60704789680A40F5D193F8BA
:20B7A0003410054841F0010183F8341002720121024A1170E9E700BF0000002024020020AE
:20B7C00072B6024B024A9D461047704700500020D5C60008FEE700BFBFF34F8F0549064BD1
:20B7E000CA6802F4E0621343CB60BFF34F8F00BFFDE700BF00ED00E00400FA052DE9F04155
:20B80000254B02781B78934240D9244B24491B6853F8324003EBC2038C4237D15C68257FB0
:20B8200015F0020801D0BDE8F081067981680A2E077B2DD80A2F2BD8324604F1280005F025
:20B84000310503F03BFD45F00205FF00F30084F81D802577E377A7772EB194F8283003F076
:20B860003F032A2B0FD0226A0E4B6262636072B60D4B20465B6803F56153A360FCF7BCFCE3
:20B8800062B6BDE8F081094B6360F0E7FEF7FEF82120FCF71FFD00BF6C0000207000002076
:20B8A00059A70008719D0008001000E0F99D000810B5124B02781B78934219D9104B114931
:20B8C0001B6853F8324003EBC2028C4210D143685468D0E9022118040CD4A08A03EB020C62
:20B8E000844507D81633E018BDE8104003F0E6BCFEF7CCF82220FCF7EDFC00BF6C000020B3
:20B9000070000020FDD20008F8B5234B1F780378BB423AD2214A166856F8331006EBC3025A
:20B920001F4B994231D104468068556802F0B2FE17A3D3E9002302F027FF0022194B02F006
:20B9400023FF03F033F90021686703F021FC20B1002385F87030EB66F8BD6368EB67237BD4
:20B96000BB4212D256F8332006EBC3010E4B9A420BD106232269496885F87120626985F8C4
:20B98000703085F87220E966F8BDFEF77FF800BFCDCCCCCCCCCC13406C0000207000002091
:20B9A00005D600080000703ECDA70008F8B51E4B1F780378BB4235D21C4A166856F83310D9
:20B9C00006EBC3021A4B99422CD104468068556803F0F2F9174903F0FBFA0021C5F8800001
:20B9E00003F0D6FB20B1002385F87030EB66F8BD63686B67237BBB4214D256F833100E4A65
:20BA000006EBC30691420DD106232269716885F87120626985F8780085F8722085F8703034
:20BA2000E966F8BDFEF732F86C0000207000002081D6000800007A44CDA7000838B5057AC2
:20BA4000032D1BD8044620220E490078FDF766FF0D4B0E491A78237941609A420CD90C4A7A
:20BA6000126802EBC30152F833200A4B9A4203D14B688577836138BDFEF708F82620FCF743
:20BA800029FC00BF3DBA00086C00002091B6000870000020819E000810B5044650220C495B
:20BAA0000078FDF73BFF0B4B22791B780A49934241600BD9094B0A491B6853F8324003EBDA
:20BAC000C2038C4202D15B68036110BDFDF7DEFF99BA00086C000020BDB600087000002049
:20BAE000819E000810B5044650220C490078FDF715FF0B4B22791B780A49934241600BD998
:20BB0000094B0A491B6853F8324003EBC2038C4202D15B68036110BDFDF7B8FFE5BA0008A4
:20BB20006C000020DDB6000870000020819E00082DE9F047484B90F800801B78434540F2F2
:20BB40008980464B464A1B6853F8381003EBC80391427FD1434C59686368D1E903021B1ABA
:20BB6000934203D263681B1A9A42FBD8D1E900C53C4B8A8A8E68586801F1160782B307EB66
:20BB80000209082417F801EB1EF0800F32D05A68121A592AFBD972B6D3F804A0DCF80C20F8
:20BBA0006A40CCF80C2062B6AAEB0000864244D94FEA4E0E5A68A2EB0A022D2AFAD972B617
:20BBC000DCF80C206A40CCF80C2062B658685A68121A0D2AFBD9013C5046D5D14F45D0D14C
:20BBE000204B01225B682048CB604146BDE8F047FCF74CBC5A68121A592AFBD972B6D3F8CB
:20BC000004A0DCF80C206A40CCF80C205A68A2EB0A020D2AFAD9DCF80C206A40CCF80C20E7
:20BC200062B6AAEB0000864207D9013C50464FEA4E0EA9D14F45A4D1D2E72D04094BCCF8C2
:20BC400010505B680022CB6007484146BDE8F047FCF71CBCFDF71AFF6C00002070000020CE
:20BC6000FDD20008001000E094F3000830B5164B01781B7885B08B4223D9144B144A1B68DE
:20BC800053F8310003EBC10390421AD15C6872B6104AA3695268E0699B68034062B6002BDB
:20BCA0000CBF04250025638D0B48029394F82CC0002365440195248D0094FCF7E7FB05B0EA
:20BCC00030BDFDF7E3FE00BF6C000020700000209DD50008001000E0F4F3000810B50E4B50
:20BCE00001681B78CAB2934213D90C4B0C481B6853F8324003EBC20384420AD1BDE81040D7
:20BD00005B68084893F87020DB6FC2F38002FCF7BDBBFDF7BBFE00BF6C0000207000002081
:20BD200005D60008BCF3000810B50E4B01681B78CAB2934213D90C4B0C481B6853F8324027
:20BD400003EBC20384420AD1BDE810405B68084893F870205B6FC2F38002FCF797BBFDF732
:20BD600095FE00BF6C0000207000002081D60008D4F300088446042200B50C4B8FB01B6869
:20BD80000B4819128DF8051019164FEA234E8DF804308DF807100DEB02039CF800108DF837
:20BDA00006E0FCF773FB0FB05DF804FB34020020C4F3000838B5104B02781B78934219D9F8
:20BDC0000E4B04461B680E4953F8320003EBC20388420FD15D682846FCF74AFA6368284669
:20BDE000AB60A268EA60E268C5E90423BDE83840FCF702BAFDF74AFE6C00002070000020A1
:20BE0000B9D3000838B5144B02781B78934220D9124B04461B68124953F8320003EBC203B2
:20BE2000884216D15D682846FCF722FA6368AB60A368EB6003B938BD0023E26828462A61CC
:20BE400022696A6162696B772A77BDE83840FCF7D3B9FDF71BFE00BF6C00002070000020BA
:20BE60003DBA000838B5144B02781B78934221D9124B05461B68124953F8320003EBC203E5
:20BE8000884217D15C682046FCF7F2F9002323756A6802B938BDE260E3822383A37672B61D
:20BEA000084AE368526820461344A360FCF7A4F962B638BDFDF7EAFD6C00002070000020D7
:20BEC00099BA0008001000E038B5144B02781B78934221D9124B05461B68124953F83200EC
:20BEE00003EBC203884217D15C682046FCF7C0F9002323756A6802B938BDE260E38223837D
:20BF0000A37672B6084AE368526820461344A360FCF772F962B638BDFDF7B8FD6C00002029
:20BF200070000020E5BA0008001000E038B5194B02781B7893422AD9174B05461B68174914
:20BF400053F8320003EBC203884220D15C682046FCF78EF90023637363616A68226192B1FD
:20BF6000D4E9081212040A612385638584F82C3072B60B4A2369526820461344A360FCF78B
:20BF80003BF962B638BDD4E908321A6138BDFDF77DFD00BF6C000020700000209DD5000836
:20BFA000001000E038B5154B02781B78934222D9134B05461B68134953F8320003EBC203AF
:20BFC000884218D15C682046FCF752F994F8303023F0010384F830306B6803B938BDE360A0
:20BFE00072B6094AE368526820461344A360FCF703F962B638BDFDF749FD00BF6C00002080
:020000040800F2
:20C000007000002005D60008001000E038B5154B02781B78934222D9134B05461B6813490B
:20C0200053F8320003EBC203884218D15C682046FCF71EF994F8343023F0010384F8343002
:20C040006B6803B938BDE36272B6094AE36A526820461344A360FCF7CFF862B638BDFDF71A
:20C0600015FD00BF6C0000207000002081D60008001000E0F0B51B4B02781B7887B0934260
:20C080002ED9194B04461B68184953F8320003EBC203884224D14FF0B90C5D68144E0222C9
:20C0A00005ABADF814C0012128697768FFF78CF99DF81520736822F08002202A0ED8288B2E
:20C0C00021780290A87E02EB820C60440190EC8A3A460848DB1B0094FCF7D8F907B0F0BD67
:20C0E000FDF7D4FC6C0000207000002099BA0008001000E0F4F30008F0B51A4B02781B780F
:20C1000087B093422CD9184B04461B68174953F8320003EBC203884222D1AF265D68144F94
:20C12000286905ABADF81460022201217E68FFF74BF92A8B7B6802929DF81520217802F0BE
:20C140001F02AC7E02EB420004EB40000190EC8A324608489B1B0094FCF798F907B0F0BD35
:20C16000FDF794FC6C00002070000020E5BA0008001000E0F4F3000870B51D46164682B083
:20C180000A46044633469DF818100F480095FCF77DF915B92369B3420FD9637F227F01338C
:20C1A000DBB29A42637701D902B070BD074B5B7A3BB10023637702B070BD6369B342F8D209
:20C1C000EBE72520FCF786F8A4F300080000002070B5044686B0484B0DF10C0C0D4693E8FC
:20C1E0000700ACE8030003AB012120698CF800200922FFF7E9F8A07E9DF80E2000F11B03B2
:20C2000012F0F00123442AD0F02928D0FF2220441A71DA709A705A70C276A27E0532D2B278
:20C220002E2A1346A27656DD002604F11B020092E28A29463148FCF729F90022E38AA27628
:20C240000133E3821E2E44D9238B0133238300222B4B1A7201222B4B1A7006B070BD9DF895
:20C26000101011F0F00631D19DF812C01CF0F00601D0F02ECAD19DF81360902EC6D19DF8C0
:20C28000146026F08006202EC0D802F01F0242EA4C124FEA8C0C0CF0600C01F01F014CEA8B
:20C2A00001019DF80DC0204480F81BC0DA709DF80F2019715A709DF811209A70A27E0532DA
:20C2C000D2B22E2A1346A276BCDDAEE7F02E9DD1CAE7012EBBD8237D23F00103237572B66D
:20C2E000094AE368526820461344A360FBF784FF62B606B070BD00BFC8060108FCF3000829
:20C300000000002034000020001000E02DE9F041AF220027A823044686B0867E0497006927
:20C32000ADF80C208DF81030072204AB884601218DF81670ADF81470FFF746F8022203AB65
:20C3400001212069FFF740F89DF8113006F11B052644F3769DF8123025446B709DF8133051
:20C360009DF80D20AB709DF8143002F03F06EB709DF815302B719DF816306B71A37E02F035
:20C3800040050633DBB22D2BA3761DDC15B1238B013323833EB9134B1E720122124B1A70EB
:20C3A00006B0BDE8F081237D23F00103237572B60E4AE368526820461344A360FBF71CFF10
:20C3C00062B606B0BDE8F08104F11B0200924146E28A0748FCF75AF8E38AA7760133E3822B
:20C3E000D4E700BF000000205C000020001000E0FCF300082DE9F04F06460024444A90F865
:20C400000C90D2F804B083B009F1170E8A46D0E90681D6E9080572B6C3686B40C3605768F4
:20C420000E375368DB1B002BFBDBC3686B40C360D8F80830194214BF0127002762B65368B4
:20C4400003F10E0C5368A3EB0C03002BFADB0EF1FF3EBEF1FF3F47EA4404DCD1002373731E
:20C4600024FA09F31A024FF0010202FA09F202F1FF3248BF43F07F43A2432BD04FF00043CB
:20C480008021736100200546044696F82C20131DDBB232442F2B82F82D4082F82E5082F8B2
:20C4A0002F0082F8301086F82C3002DC03B0BDE8F08F06F12D00328D514600901548FBF7AB
:20C4C000E5FF0022338D86F82C200133338503B0BDE8F08F0E4A5268A2EB0B0B3269BBEB13
:20C4E000C20F08D8716959B9DCB2C3F30725C3F30740190EC9E74FF0804340217361C1E77C
:20C50000CCB2C1F30725C1F30740090EBDE700BF001000E0FCF3000830B584464FF0180E4D
:20C520000025194A72B65168DCE90640206153685B1A0D2BFBD90004206162B651685368B9
:20C540005B1A0D2BFBD9DCE904138968194214BF01230023BEF1010E43EA4505E2D172B608
:20C56000DCE9063211041A6185F40005196162B60423290C2A0EACF836508CF838108CF810
:20C5800039208CF8313030BD001000E038B5154B05781B78AB4223D9134B144A1B6853F8B0
:20C5A000351003EBC50391421AD15C68D4E9042392681A4202D12046FFF7AEFFD4F83600E6
:20C5C00002F0FAFB0A4902F04FFC0A4902F000FD03462946A3670848BDE83840FBF756BF6C
:20C5E000FDF754FA6C0000207000002005D6000866669E40FFFF7F4BB4F3000870B5114B58
:20C6000005781B78AB421BD90F4B104A1B6853F8351003EBC503914212D15C68D4E904234E
:20C6200092681A4202D12046FFF776FF294694F8312004F136030648BDE87040FBF726BF0C
:20C64000FDF724FA6C0000207000002005D60008ACF30008184B984223D8184B98424FF06E
:20C66000010314D800F14040800A1549154A03FA00F0EFF3108C72B61368034313601368D0
:20C6800011B1002308600B608CF31088704700F13F4000F57F00800A0B490C4A03FA00F00F
:20C6A000E7E7012300F13F4000F57E00800A0021074A03FA00F0DCE7FFFF0140FFFF00407C
:20C6C000101002401C1002400C100240181002401410024000224FF0FF3180B5930003F10F
:20C6E000604303F56143C3F88010BFF34F8F0132082AC3F88011F1D1002319464048C218C9
:20C700000133F02B82F80013F9D14FF0E02304221A61BFF34F8F00234FF02062184639493C
:20C720004A60CA1801330C2B1076FAD1BFF34F8FBFF36F8F62B6344B344A9B1A09D0344951
:20C7400001EB030C51F8040B0432614542F8040CF8D1304A304BD21A06D0002099181A46AF
:20C7600004338B421060FAD100244FF41F074FF000661425294B12201968294A41F0010142
:20C78000196059680A405A601A68264922F0847222F480321A601A6822F480221A605A68AA
:20C7A00022F4FE025A60174A9F60966091605D61DC619C611A681C4942F480321A60596068
:20C7C0001A681A4942F080721A6008601A689201FCD51749114A5960536803F00C03082B24
:20C7E000FAD1144C2046FFF735FF134A136823F0E06343F0007313606360FCF715FE00BFAF
:20C8000000E100E000ED00E03400002000000020A80701083802002034000020001002405E
:20C820000000FFF80080000800E41D000020024002E41D000000014030020020134B984248
:20C8400018D8134B98424FF0010308D8114A00F14040800A03FA00F013681840704700F1CF
:20C860003F400D4A00F57F00800A03FA00F0136818407047012300F13F40084A00F57E0014
:20C88000800A03FA00F0136818407047FFFF0140FFFF00401C1002401810024014100240DC
:20C8A00038B54FF0006EDEF80420931EA2F1090C23F007039C4500D038BD52F8095C0A4CC3
:20C8C00052F8052C094B9A4208BFA542F4D1DEF80020D31D23F007039A42EDD172B6C2E9CA
:20C8E0000001FEF779FF00BF43616E426F6F742108B503A1D1E90001FFF7D2FFFEF76CFF01
:20C900003D24A8A945EC067BF0B501244FF00F0E8D4B050953F825508C4E05F13F4C0CF58B
:20C920007F0CB7694FEA9C2C04FA0CF43C4300F00703B4619B00B4690EFA03FE00F00F06F9
:20C94000002959D12AB3082404FA03F3040725D56C68002A24EA0E0E4EEA03036B6025DD4F
:20C960000123B3402B61A0F10D03012B29D9C1F3031101294ED0022900F08280042974D0A7
:20C98000052953D0072900F0A080092900F0B180F0BD042404FA03F30407D9D42C68002A74
:20C9A00024EA0E0E4EEA03032B60D9DCDBD0012206F1100302FA03F32B61A0F10D03012BAC
